{
  "contractName": "CreatorRole",
  "abi": [
    {
      "inputs": [],
      "payable": false,
      "stateMutability": "nonpayable",
      "type": "constructor"
    },
    {
      "anonymous": false,
      "inputs": [
        {
          "indexed": true,
          "name": "account",
          "type": "address"
        }
      ],
      "name": "CreatorAdded",
      "type": "event"
    },
    {
      "anonymous": false,
      "inputs": [
        {
          "indexed": true,
          "name": "account",
          "type": "address"
        }
      ],
      "name": "CreatorRemoved",
      "type": "event"
    },
    {
      "constant": true,
      "inputs": [
        {
          "name": "account",
          "type": "address"
        }
      ],
      "name": "isCreator",
      "outputs": [
        {
          "name": "",
          "type": "bool"
        }
      ],
      "payable": false,
      "stateMutability": "view",
      "type": "function"
    },
    {
      "constant": false,
      "inputs": [
        {
          "name": "account",
          "type": "address"
        }
      ],
      "name": "addCreator",
      "outputs": [],
      "payable": false,
      "stateMutability": "nonpayable",
      "type": "function"
    },
    {
      "constant": false,
      "inputs": [],
      "name": "renounceCreator",
      "outputs": [],
      "payable": false,
      "stateMutability": "nonpayable",
      "type": "function"
    }
  ],
  "bytecode": "0x608060405234801561001057600080fd5b506100293361002e640100000000026401000000009004565b6101e8565b61004f816000610095640100000000026102a1179091906401000000009004565b8073ffffffffffffffffffffffffffffffffffffffff167f021a687fbe334e9e815cee8b399c0bc42e82356eb7f63a09ddb558a25d3dcdbd60405160405180910390a250565b600073ffffffffffffffffffffffffffffffffffffffff168173ffffffffffffffffffffffffffffffffffffffff16141515156100d157600080fd5b6100ea8282610154640100000000026401000000009004565b1515156100f657600080fd5b60018260000160008373ffffffffffffffffffffffffffffffffffffffff1673ffffffffffffffffffffffffffffffffffffffff16815260200190815260200160002060006101000a81548160ff0219169083151502179055505050565b60008073ffffffffffffffffffffffffffffffffffffffff168273ffffffffffffffffffffffffffffffffffffffff161415151561019157600080fd5b8260000160008373ffffffffffffffffffffffffffffffffffffffff1673ffffffffffffffffffffffffffffffffffffffff16815260200190815260200160002060009054906101000a900460ff16905092915050565b61042c806101f76000396000f300608060405260043610610057576000357c0100000000000000000000000000000000000000000000000000000000900463ffffffff1680633b9dce051461005c578063ca2311be1461009f578063efd46065146100b6575b600080fd5b34801561006857600080fd5b5061009d600480360381019080803573ffffffffffffffffffffffffffffffffffffffff169060200190929190505050610111565b005b3480156100ab57600080fd5b506100b4610131565b005b3480156100c257600080fd5b506100f7600480360381019080803573ffffffffffffffffffffffffffffffffffffffff16906020019092919050505061013c565b604051808215151515815260200191505060405180910390f35b61011a3361013c565b151561012557600080fd5b61012e81610159565b50565b61013a336101b3565b565b600061015282600061020d90919063ffffffff16565b9050919050565b61016d8160006102a190919063ffffffff16565b8073ffffffffffffffffffffffffffffffffffffffff167f021a687fbe334e9e815cee8b399c0bc42e82356eb7f63a09ddb558a25d3dcdbd60405160405180910390a250565b6101c781600061035190919063ffffffff16565b8073ffffffffffffffffffffffffffffffffffffffff167f94a409f50d78dc8628b7499ba5af0848a134b9a935a59c0a45313b67f66920f860405160405180910390a250565b60008073ffffffffffffffffffffffffffffffffffffffff168273ffffffffffffffffffffffffffffffffffffffff161415151561024a57600080fd5b8260000160008373ffffffffffffffffffffffffffffffffffffffff1673ffffffffffffffffffffffffffffffffffffffff16815260200190815260200160002060009054906101000a900460ff16905092915050565b600073ffffffffffffffffffffffffffffffffffffffff168173ffffffffffffffffffffffffffffffffffffffff16141515156102dd57600080fd5b6102e7828261020d565b1515156102f357600080fd5b60018260000160008373ffffffffffffffffffffffffffffffffffffffff1673ffffffffffffffffffffffffffffffffffffffff16815260200190815260200160002060006101000a81548160ff0219169083151502179055505050565b600073ffffffffffffffffffffffffffffffffffffffff168173ffffffffffffffffffffffffffffffffffffffff161415151561038d57600080fd5b610397828261020d565b15156103a257600080fd5b60008260000160008373ffffffffffffffffffffffffffffffffffffffff1673ffffffffffffffffffffffffffffffffffffffff16815260200190815260200160002060006101000a81548160ff02191690831515021790555050505600a165627a7a72305820d14ff278a8d6c18e7f2fa146badc34533ed284cbface7c841cd283ef4f9da4a60029",
  "source": "pragma solidity ^0.4.24;\n\n// Import the library 'Roles'\nimport \"./Roles.sol\";\n\n// Define a contract 'CreatorRole' to manage this role - add, remove, check\ncontract CreatorRole {\n    using Roles for Roles.Role;\n\n    // Define 2 events, one for Adding, and other for Removing\n    event CreatorAdded(address indexed account);\n    event CreatorRemoved(address indexed account);\n\n    // Define a struct 'creators' by inheriting from 'Roles' library, struct Role\n    Roles.Role private creators;\n\n    // In the constructor make the address that deploys this contract the 1st creator\n    constructor() public {\n        _addCreator(msg.sender);\n    }\n\n    // Define a modifier that checks to see if msg.sender has the appropriate role\n    modifier onlyCreator() {\n        require(isCreator(msg.sender));\n        _;\n    }\n\n    // Define a function 'isCreator' to check this role\n    function isCreator(address account) public view returns (bool) {\n        return creators.has(account);\n    }\n\n    // Define a function 'addCreator' that adds this role\n    function addCreator(address account) public onlyCreator {\n        _addCreator(account);\n    }\n\n    // Define a function 'renounceCreator' to renounce this role\n    function renounceCreator() public {\n        _removeCreator(msg.sender);\n    }\n\n    // Define an internal function '_addCreator' to add this role, called by 'addCreator'\n    function _addCreator(address account) internal {\n        creators.add(account);\n        emit CreatorAdded(account);\n    }\n\n    // Define an internal function '_removeCreator' to remove this role, called by 'removeCreator'\n    function _removeCreator(address account) internal {\n        creators.remove(account);\n        emit CreatorRemoved(account);\n    }\n}\n",
  "sourcePath": "/Users/afopefoluwaojo/code/supply-chain/project-6/contracts/coffeeaccesscontrol/CreatorRole.sol",
  "compiler": {
    "name": "solc",
    "version": "0.4.24+commit.e67f0147.Emscripten.clang"
  },
  "schemaVersion": "2.0.1",
  "updatedAt": "2020-06-17T20:10:56.772Z"
}