{
  "contractName": "EditorRole",
  "abi": [
    {
      "inputs": [],
      "payable": false,
      "stateMutability": "nonpayable",
      "type": "constructor"
    },
    {
      "anonymous": false,
      "inputs": [
        {
          "indexed": true,
          "name": "account",
          "type": "address"
        }
      ],
      "name": "EditorAdded",
      "type": "event"
    },
    {
      "anonymous": false,
      "inputs": [
        {
          "indexed": true,
          "name": "account",
          "type": "address"
        }
      ],
      "name": "EditorRemoved",
      "type": "event"
    },
    {
      "constant": true,
      "inputs": [
        {
          "name": "account",
          "type": "address"
        }
      ],
      "name": "isEditor",
      "outputs": [
        {
          "name": "",
          "type": "bool"
        }
      ],
      "payable": false,
      "stateMutability": "view",
      "type": "function"
    },
    {
      "constant": false,
      "inputs": [
        {
          "name": "account",
          "type": "address"
        }
      ],
      "name": "addEditor",
      "outputs": [],
      "payable": false,
      "stateMutability": "nonpayable",
      "type": "function"
    },
    {
      "constant": false,
      "inputs": [],
      "name": "renounceEditor",
      "outputs": [],
      "payable": false,
      "stateMutability": "nonpayable",
      "type": "function"
    }
  ],
  "bytecode": "0x608060405234801561001057600080fd5b506100293361002e640100000000026401000000009004565b6101e8565b61004f81600061009564010000000002610350179091906401000000009004565b8073ffffffffffffffffffffffffffffffffffffffff167f2973ec437ba0a6207102c44c409e03815ee1cc4624578ad40d3e4c50f978559160405160405180910390a250565b600073ffffffffffffffffffffffffffffffffffffffff168173ffffffffffffffffffffffffffffffffffffffff16141515156100d157600080fd5b6100ea8282610154640100000000026401000000009004565b1515156100f657600080fd5b60018260000160008373ffffffffffffffffffffffffffffffffffffffff1673ffffffffffffffffffffffffffffffffffffffff16815260200190815260200160002060006101000a81548160ff0219169083151502179055505050565b60008073ffffffffffffffffffffffffffffffffffffffff168273ffffffffffffffffffffffffffffffffffffffff161415151561019157600080fd5b8260000160008373ffffffffffffffffffffffffffffffffffffffff1673ffffffffffffffffffffffffffffffffffffffff16815260200190815260200160002060009054906101000a900460ff16905092915050565b61042c806101f76000396000f300608060405260043610610057576000357c0100000000000000000000000000000000000000000000000000000000900463ffffffff168063a01b86d01461005c578063a074815414610073578063e5975bdc146100ce575b600080fd5b34801561006857600080fd5b50610071610111565b005b34801561007f57600080fd5b506100b4600480360381019080803573ffffffffffffffffffffffffffffffffffffffff16906020019092919050505061011c565b604051808215151515815260200191505060405180910390f35b3480156100da57600080fd5b5061010f600480360381019080803573ffffffffffffffffffffffffffffffffffffffff169060200190929190505050610139565b005b61011a33610159565b565b60006101328260006101b390919063ffffffff16565b9050919050565b6101423361011c565b151561014d57600080fd5b61015681610247565b50565b61016d8160006102a190919063ffffffff16565b8073ffffffffffffffffffffffffffffffffffffffff167f9ebabfcf7586bd9e26cef64918d755359eb8b878650b23b77105b0963082e34860405160405180910390a250565b60008073ffffffffffffffffffffffffffffffffffffffff168273ffffffffffffffffffffffffffffffffffffffff16141515156101f057600080fd5b8260000160008373ffffffffffffffffffffffffffffffffffffffff1673ffffffffffffffffffffffffffffffffffffffff16815260200190815260200160002060009054906101000a900460ff16905092915050565b61025b81600061035090919063ffffffff16565b8073ffffffffffffffffffffffffffffffffffffffff167f2973ec437ba0a6207102c44c409e03815ee1cc4624578ad40d3e4c50f978559160405160405180910390a250565b600073ffffffffffffffffffffffffffffffffffffffff168173ffffffffffffffffffffffffffffffffffffffff16141515156102dd57600080fd5b6102e782826101b3565b15156102f257600080fd5b60008260000160008373ffffffffffffffffffffffffffffffffffffffff1673ffffffffffffffffffffffffffffffffffffffff16815260200190815260200160002060006101000a81548160ff0219169083151502179055505050565b600073ffffffffffffffffffffffffffffffffffffffff168173ffffffffffffffffffffffffffffffffffffffff161415151561038c57600080fd5b61039682826101b3565b1515156103a257600080fd5b60018260000160008373ffffffffffffffffffffffffffffffffffffffff1673ffffffffffffffffffffffffffffffffffffffff16815260200190815260200160002060006101000a81548160ff02191690831515021790555050505600a165627a7a72305820baeccd49426d387052f91980e60241b362fe4890aa176eba1e3ceb4504a2e3a70029",
  "source": "pragma solidity ^0.4.24;\n\n// Import the library 'Roles'\nimport \"./Roles.sol\";\n\n// Define a contract 'EditorRole' to manage this role - add, remove, check\ncontract EditorRole {\n    using Roles for Roles.Role;\n\n    // Define 2 events, one for Adding, and other for Removing\n    // Events\n    event EditorAdded(address indexed account);\n    event EditorRemoved(address indexed account);\n\n    // Define a struct 'editors' by inheriting from 'Roles' library, struct Role\n    Roles.Role private editors;\n\n    // In the constructor make the address that deploys this contract the 1st disteditoributor\n    constructor() public {\n        _addEditor(msg.sender);\n    }\n\n    // Define a modifier that checks to see if msg.sender has the appropriate role\n    modifier onlyEditor() {\n        require(isEditor(msg.sender));\n        _;\n    }\n\n    // Define a function 'isEditor' to check this role\n    function isEditor(address account) public view returns (bool) {\n        return editors.has(account);\n    }\n\n    // Define a function 'addEditor' that adds this role\n    function addEditor(address account) public onlyEditor {\n        _addEditor(account);\n    }\n\n    // Define a function 'renounceEditor' to renounce this role\n    function renounceEditor() public {\n        _removeEditor(msg.sender);\n    }\n\n    // Define an internal function '_addEditor' to add this role, called by 'addEditor'\n    function _addEditor(address account) internal {\n        editors.add(account);\n        emit EditorAdded(account);\n    }\n\n    // Define an internal function '_removeEditor' to remove this role, called by 'removeEditor'\n    function _removeEditor(address account) internal {\n        editors.remove(account);\n        emit EditorRemoved(account);\n    }\n}\n",
  "sourcePath": "/Users/afopefoluwaojo/code/supply-chain/project-6/contracts/coffeeaccesscontrol/EditorRole.sol",
  "compiler": {
    "name": "solc",
    "version": "0.4.24+commit.e67f0147.Emscripten.clang"
  },
  "schemaVersion": "2.0.1",
  "updatedAt": "2020-06-17T20:54:40.153Z"
}