{
  "contractName": "RetailerRole",
  "abi": [
    {
      "inputs": [],
      "payable": false,
      "stateMutability": "nonpayable",
      "type": "constructor"
    },
    {
      "constant": true,
      "inputs": [
        {
          "name": "account",
          "type": "address"
        }
      ],
      "name": "isRetailer",
      "outputs": [
        {
          "name": "",
          "type": "bool"
        }
      ],
      "payable": false,
      "stateMutability": "view",
      "type": "function"
    },
    {
      "constant": false,
      "inputs": [
        {
          "name": "account",
          "type": "address"
        }
      ],
      "name": "addRetailer",
      "outputs": [],
      "payable": false,
      "stateMutability": "nonpayable",
      "type": "function"
    },
    {
      "constant": false,
      "inputs": [],
      "name": "renounceRetailer",
      "outputs": [],
      "payable": false,
      "stateMutability": "nonpayable",
      "type": "function"
    }
  ],
  "bytecode": "0x608060405234801561001057600080fd5b50610149806100206000396000f300608060405260043610610057576000357c0100000000000000000000000000000000000000000000000000000000900463ffffffff1680635da09b881461005c5780638ec4f505146100b7578063db0e6a2f146100fa575b600080fd5b34801561006857600080fd5b5061009d600480360381019080803573ffffffffffffffffffffffffffffffffffffffff169060200190929190505050610111565b604051808215151515815260200191505060405180910390f35b3480156100c357600080fd5b506100f8600480360381019080803573ffffffffffffffffffffffffffffffffffffffff169060200190929190505050610118565b005b34801561010657600080fd5b5061010f61011b565b005b6000919050565b50565b5600a165627a7a723058206567451afd5d610f5c102cfe7e117662e92941931331ca05660fb781dd576d3d0029",
  "source": "pragma solidity ^0.4.24;\n\n// Import the library 'Roles'\nimport \"./Roles.sol\";\n\n// Define a contract 'RetailerRole' to manage this role - add, remove, check\ncontract RetailerRole {\n\n    // Define 2 events, one for Adding, and other for Removing\n\n    // Define a struct 'retailers' by inheriting from 'Roles' library, struct Role\n\n    // In the constructor make the address that deploys this contract the 1st retailer\n    constructor() public {\n\n    }\n\n    // Define a modifier that checks to see if msg.sender has the appropriate role\n    modifier onlyRetailer() {\n\n        _;\n    }\n\n    // Define a function 'isRetailer' to check this role\n    function isRetailer(address account) public view returns (bool) {\n\n    }\n\n    // Define a function 'addRetailer' that adds this role\n    function addRetailer(address account) public onlyRetailer {\n\n    }\n\n    // Define a function 'renounceRetailer' to renounce this role\n    function renounceRetailer() public {\n\n    }\n\n    // Define an internal function '_addRetailer' to add this role, called by 'addRetailer'\n    function _addRetailer(address account) internal {\n\n    }\n\n    // Define an internal function '_removeRetailer' to remove this role, called by 'removeRetailer'\n    function _removeRetailer(address account) internal {\n\n    }\n}\n",
  "sourcePath": "/Users/afopefoluwaojo/code/supply-chain/project-6/contracts/coffeeaccesscontrol/RetailerRole.sol",
  "compiler": {
    "name": "solc",
    "version": "0.4.24+commit.e67f0147.Emscripten.clang"
  },
  "schemaVersion": "2.0.1",
  "updatedAt": "2020-06-17T20:04:42.944Z"
}