{
  "contractName": "SupplyChain",
  "abi": [
    {
      "constant": false,
      "inputs": [
        {
          "name": "account",
          "type": "address"
        }
      ],
      "name": "addConsumer",
      "outputs": [],
      "payable": false,
      "stateMutability": "nonpayable",
      "type": "function"
    },
    {
      "constant": false,
      "inputs": [
        {
          "name": "account",
          "type": "address"
        }
      ],
      "name": "addCreator",
      "outputs": [],
      "payable": false,
      "stateMutability": "nonpayable",
      "type": "function"
    },
    {
      "constant": false,
      "inputs": [],
      "name": "renounceConsumer",
      "outputs": [],
      "payable": false,
      "stateMutability": "nonpayable",
      "type": "function"
    },
    {
      "constant": false,
      "inputs": [],
      "name": "renounceOwnership",
      "outputs": [],
      "payable": false,
      "stateMutability": "nonpayable",
      "type": "function"
    },
    {
      "constant": true,
      "inputs": [
        {
          "name": "account",
          "type": "address"
        }
      ],
      "name": "isConsumer",
      "outputs": [
        {
          "name": "",
          "type": "bool"
        }
      ],
      "payable": false,
      "stateMutability": "view",
      "type": "function"
    },
    {
      "constant": true,
      "inputs": [],
      "name": "isOwner",
      "outputs": [
        {
          "name": "",
          "type": "bool"
        }
      ],
      "payable": false,
      "stateMutability": "view",
      "type": "function"
    },
    {
      "constant": false,
      "inputs": [],
      "name": "renounceEditor",
      "outputs": [],
      "payable": false,
      "stateMutability": "nonpayable",
      "type": "function"
    },
    {
      "constant": true,
      "inputs": [
        {
          "name": "account",
          "type": "address"
        }
      ],
      "name": "isEditor",
      "outputs": [
        {
          "name": "",
          "type": "bool"
        }
      ],
      "payable": false,
      "stateMutability": "view",
      "type": "function"
    },
    {
      "constant": false,
      "inputs": [],
      "name": "renounceCreator",
      "outputs": [],
      "payable": false,
      "stateMutability": "nonpayable",
      "type": "function"
    },
    {
      "constant": false,
      "inputs": [
        {
          "name": "account",
          "type": "address"
        }
      ],
      "name": "addEditor",
      "outputs": [],
      "payable": false,
      "stateMutability": "nonpayable",
      "type": "function"
    },
    {
      "constant": true,
      "inputs": [
        {
          "name": "account",
          "type": "address"
        }
      ],
      "name": "isCreator",
      "outputs": [
        {
          "name": "",
          "type": "bool"
        }
      ],
      "payable": false,
      "stateMutability": "view",
      "type": "function"
    },
    {
      "constant": false,
      "inputs": [
        {
          "name": "newOwner",
          "type": "address"
        }
      ],
      "name": "transferOwnership",
      "outputs": [],
      "payable": false,
      "stateMutability": "nonpayable",
      "type": "function"
    },
    {
      "constant": true,
      "inputs": [],
      "name": "ownerLookUp",
      "outputs": [
        {
          "name": "",
          "type": "address"
        }
      ],
      "payable": false,
      "stateMutability": "view",
      "type": "function"
    },
    {
      "inputs": [],
      "payable": true,
      "stateMutability": "payable",
      "type": "constructor"
    },
    {
      "anonymous": false,
      "inputs": [
        {
          "indexed": false,
          "name": "upc",
          "type": "uint256"
        }
      ],
      "name": "Written",
      "type": "event"
    },
    {
      "anonymous": false,
      "inputs": [
        {
          "indexed": false,
          "name": "upc",
          "type": "uint256"
        }
      ],
      "name": "Edited",
      "type": "event"
    },
    {
      "anonymous": false,
      "inputs": [
        {
          "indexed": false,
          "name": "upc",
          "type": "uint256"
        }
      ],
      "name": "Published",
      "type": "event"
    },
    {
      "anonymous": false,
      "inputs": [
        {
          "indexed": false,
          "name": "upc",
          "type": "uint256"
        }
      ],
      "name": "Read",
      "type": "event"
    },
    {
      "anonymous": false,
      "inputs": [
        {
          "indexed": false,
          "name": "upc",
          "type": "uint256"
        }
      ],
      "name": "ForSale",
      "type": "event"
    },
    {
      "anonymous": false,
      "inputs": [
        {
          "indexed": false,
          "name": "upc",
          "type": "uint256"
        }
      ],
      "name": "Sold",
      "type": "event"
    },
    {
      "anonymous": false,
      "inputs": [
        {
          "indexed": false,
          "name": "upc",
          "type": "uint256"
        }
      ],
      "name": "Shipped",
      "type": "event"
    },
    {
      "anonymous": false,
      "inputs": [
        {
          "indexed": false,
          "name": "upc",
          "type": "uint256"
        }
      ],
      "name": "Purchased",
      "type": "event"
    },
    {
      "anonymous": false,
      "inputs": [
        {
          "indexed": true,
          "name": "account",
          "type": "address"
        }
      ],
      "name": "CreatorAdded",
      "type": "event"
    },
    {
      "anonymous": false,
      "inputs": [
        {
          "indexed": true,
          "name": "account",
          "type": "address"
        }
      ],
      "name": "CreatorRemoved",
      "type": "event"
    },
    {
      "anonymous": false,
      "inputs": [
        {
          "indexed": true,
          "name": "account",
          "type": "address"
        }
      ],
      "name": "EditorAdded",
      "type": "event"
    },
    {
      "anonymous": false,
      "inputs": [
        {
          "indexed": true,
          "name": "account",
          "type": "address"
        }
      ],
      "name": "EditorRemoved",
      "type": "event"
    },
    {
      "anonymous": false,
      "inputs": [
        {
          "indexed": true,
          "name": "account",
          "type": "address"
        }
      ],
      "name": "ConsumerAdded",
      "type": "event"
    },
    {
      "anonymous": false,
      "inputs": [
        {
          "indexed": true,
          "name": "account",
          "type": "address"
        }
      ],
      "name": "ConsumerRemoved",
      "type": "event"
    },
    {
      "anonymous": false,
      "inputs": [
        {
          "indexed": true,
          "name": "oldOwner",
          "type": "address"
        },
        {
          "indexed": true,
          "name": "newOwner",
          "type": "address"
        }
      ],
      "name": "TransferOwnership",
      "type": "event"
    },
    {
      "constant": false,
      "inputs": [
        {
          "name": "_upc",
          "type": "uint256"
        },
        {
          "name": "_originCreatorID",
          "type": "address"
        },
        {
          "name": "_originCreatorName",
          "type": "string"
        },
        {
          "name": "_originCreatorInformation",
          "type": "string"
        },
        {
          "name": "_originPoemCountry",
          "type": "string"
        },
        {
          "name": "_originPoemTitle",
          "type": "string"
        },
        {
          "name": "_productID",
          "type": "uint256"
        },
        {
          "name": "_productNotes",
          "type": "string"
        }
      ],
      "name": "writeItem",
      "outputs": [],
      "payable": false,
      "stateMutability": "nonpayable",
      "type": "function"
    },
    {
      "constant": false,
      "inputs": [
        {
          "name": "_upc",
          "type": "uint256"
        }
      ],
      "name": "editItem",
      "outputs": [],
      "payable": false,
      "stateMutability": "nonpayable",
      "type": "function"
    },
    {
      "constant": false,
      "inputs": [
        {
          "name": "_upc",
          "type": "uint256"
        }
      ],
      "name": "publishItem",
      "outputs": [],
      "payable": false,
      "stateMutability": "nonpayable",
      "type": "function"
    },
    {
      "constant": false,
      "inputs": [
        {
          "name": "_upc",
          "type": "uint256"
        }
      ],
      "name": "readItem",
      "outputs": [],
      "payable": false,
      "stateMutability": "nonpayable",
      "type": "function"
    },
    {
      "constant": false,
      "inputs": [
        {
          "name": "_upc",
          "type": "uint256"
        },
        {
          "name": "_price",
          "type": "uint256"
        }
      ],
      "name": "sellItem",
      "outputs": [],
      "payable": false,
      "stateMutability": "nonpayable",
      "type": "function"
    },
    {
      "constant": false,
      "inputs": [
        {
          "name": "_upc",
          "type": "uint256"
        }
      ],
      "name": "buyItem",
      "outputs": [],
      "payable": true,
      "stateMutability": "payable",
      "type": "function"
    },
    {
      "constant": false,
      "inputs": [
        {
          "name": "_upc",
          "type": "uint256"
        }
      ],
      "name": "shipItem",
      "outputs": [],
      "payable": false,
      "stateMutability": "nonpayable",
      "type": "function"
    },
    {
      "constant": false,
      "inputs": [
        {
          "name": "_upc",
          "type": "uint256"
        }
      ],
      "name": "purchaseItem",
      "outputs": [],
      "payable": false,
      "stateMutability": "nonpayable",
      "type": "function"
    },
    {
      "constant": true,
      "inputs": [
        {
          "name": "_upc",
          "type": "uint256"
        }
      ],
      "name": "fetchItemBufferOne",
      "outputs": [
        {
          "name": "itemSKU",
          "type": "uint256"
        },
        {
          "name": "itemUPC",
          "type": "uint256"
        },
        {
          "name": "ownerID",
          "type": "address"
        },
        {
          "name": "originCreatorID",
          "type": "address"
        },
        {
          "name": "originCreatorName",
          "type": "string"
        },
        {
          "name": "originCreatorInformation",
          "type": "string"
        },
        {
          "name": "originPoemCountry",
          "type": "string"
        },
        {
          "name": "originPoemTitle",
          "type": "string"
        }
      ],
      "payable": false,
      "stateMutability": "view",
      "type": "function"
    },
    {
      "constant": true,
      "inputs": [
        {
          "name": "_upc",
          "type": "uint256"
        }
      ],
      "name": "fetchItemBufferTwo",
      "outputs": [
        {
          "name": "itemSKU",
          "type": "uint256"
        },
        {
          "name": "itemUPC",
          "type": "uint256"
        },
        {
          "name": "productID",
          "type": "uint256"
        },
        {
          "name": "productNotes",
          "type": "string"
        },
        {
          "name": "productPrice",
          "type": "uint256"
        },
        {
          "name": "itemState",
          "type": "uint8"
        },
        {
          "name": "editorID",
          "type": "address"
        },
        {
          "name": "consumerID",
          "type": "address"
        }
      ],
      "payable": false,
      "stateMutability": "view",
      "type": "function"
    }
  ],
  "bytecode": "0x6080604052336000806101000a81548173ffffffffffffffffffffffffffffffffffffffff021916908373ffffffffffffffffffffffffffffffffffffffff1602179055506000809054906101000a900473ffffffffffffffffffffffffffffffffffffffff1673ffffffffffffffffffffffffffffffffffffffff16600073ffffffffffffffffffffffffffffffffffffffff167f5c486528ec3e3f0ea91181cff8116f02bfa350e03b8b6f12e00765adbb5af85c60405160405180910390a3620000da3362000165640100000000026401000000009004565b620000f4336200018c640100000000026401000000009004565b6200010e33620001f6640100000000026401000000009004565b33600460006101000a81548173ffffffffffffffffffffffffffffffffffffffff021916908373ffffffffffffffffffffffffffffffffffffffff16021790555060016006819055506001600581905550620003b8565b62000189816001620002606401000000000262002ab7179091906401000000009004565b50565b620001b0816002620002606401000000000262002ab7179091906401000000009004565b8073ffffffffffffffffffffffffffffffffffffffff167f2973ec437ba0a6207102c44c409e03815ee1cc4624578ad40d3e4c50f978559160405160405180910390a250565b6200021a816003620002606401000000000262002ab7179091906401000000009004565b8073ffffffffffffffffffffffffffffffffffffffff167f021a687fbe334e9e815cee8b399c0bc42e82356eb7f63a09ddb558a25d3dcdbd60405160405180910390a250565b600073ffffffffffffffffffffffffffffffffffffffff168173ffffffffffffffffffffffffffffffffffffffff16141515156200029d57600080fd5b620002b8828262000323640100000000026401000000009004565b151515620002c557600080fd5b60018260000160008373ffffffffffffffffffffffffffffffffffffffff1673ffffffffffffffffffffffffffffffffffffffff16815260200190815260200160002060006101000a81548160ff0219169083151502179055505050565b60008073ffffffffffffffffffffffffffffffffffffffff168273ffffffffffffffffffffffffffffffffffffffff16141515156200036157600080fd5b8260000160008373ffffffffffffffffffffffffffffffffffffffff1673ffffffffffffffffffffffffffffffffffffffff16815260200190815260200160002060009054906101000a900460ff16905092915050565b612dc180620003c86000396000f300608060405260043610610133576000357c0100000000000000000000000000000000000000000000000000000000900463ffffffff168063112940f9146101385780632d9235611461017b5780633b9dce05146101b257806361e6982d146101f557806366225ff91461020c5780636b9fd3d514610349578063715018a6146104fe57806377c4591314610515578063834ff73914610773578063838b96bd146107ce5780638f32d59b146107fb578063a01b86d01461082a578063a074815414610841578063ca2311be1461089c578063d38ea5bf146108b3578063e5975bdc146108e0578063e7fb74c714610923578063ea29fc9614610943578063efd4606514610970578063f2fde38b146109cb578063f61c899a14610a0e578063f7b9f3d014610a3b578063f96f50fd14610a92575b600080fd5b34801561014457600080fd5b50610179600480360381019080803573ffffffffffffffffffffffffffffffffffffffff169060200190929190505050610abf565b005b34801561018757600080fd5b506101b06004803603810190808035906020019092919080359060200190929190505050610adf565b005b3480156101be57600080fd5b506101f3600480360381019080803573ffffffffffffffffffffffffffffffffffffffff169060200190929190505050610c75565b005b34801561020157600080fd5b5061020a610c95565b005b34801561021857600080fd5b5061023760048036038101908080359060200190929190505050610ca0565b604051808981526020018881526020018781526020018060200186815260200185600781111561026357fe5b60ff1681526020018473ffffffffffffffffffffffffffffffffffffffff1673ffffffffffffffffffffffffffffffffffffffff1681526020018373ffffffffffffffffffffffffffffffffffffffff1673ffffffffffffffffffffffffffffffffffffffff168152602001828103825287818151815260200191508051906020019080838360005b838110156103075780820151818401526020810190506102ec565b50505050905090810190601f1680156103345780820380516001836020036101000a031916815260200191505b50995050505050505050505060405180910390f35b34801561035557600080fd5b506104fc60048036038101908080359060200190929190803573ffffffffffffffffffffffffffffffffffffffff169060200190929190803590602001908201803590602001908080601f0160208091040260200160405190810160405280939291908181526020018383808284378201915050505050509192919290803590602001908201803590602001908080601f0160208091040260200160405190810160405280939291908181526020018383808284378201915050505050509192919290803590602001908201803590602001908080601f0160208091040260200160405190810160405280939291908181526020018383808284378201915050505050509192919290803590602001908201803590602001908080601f016020809104026020016040519081016040528093929190818152602001838380828437820191505050505050919291929080359060200190929190803590602001908201803590602001908080601f0160208091040260200160405190810160405280939291908181526020018383808284378201915050505050509192919290505050611205565b005b34801561050a57600080fd5b5061051361155d565b005b34801561052157600080fd5b5061054060048036038101908080359060200190929190505050611678565b604051808981526020018881526020018773ffffffffffffffffffffffffffffffffffffffff1673ffffffffffffffffffffffffffffffffffffffff1681526020018673ffffffffffffffffffffffffffffffffffffffff1673ffffffffffffffffffffffffffffffffffffffff16815260200180602001806020018060200180602001858103855289818151815260200191508051906020019080838360005b838110156105fc5780820151818401526020810190506105e1565b50505050905090810190601f1680156106295780820380516001836020036101000a031916815260200191505b50858103845288818151815260200191508051906020019080838360005b83811015610662578082015181840152602081019050610647565b50505050905090810190601f16801561068f5780820380516001836020036101000a031916815260200191505b50858103835287818151815260200191508051906020019080838360005b838110156106c85780820151818401526020810190506106ad565b50505050905090810190601f1680156106f55780820380516001836020036101000a031916815260200191505b50858103825286818151815260200191508051906020019080838360005b8381101561072e578082015181840152602081019050610713565b50505050905090810190601f16801561075b5780820380516001836020036101000a031916815260200191505b509c5050505050505050505050505060405180910390f35b34801561077f57600080fd5b506107b4600480360381019080803573ffffffffffffffffffffffffffffffffffffffff169060200190929190505050611bdf565b604051808215151515815260200191505060405180910390f35b3480156107da57600080fd5b506107f960048036038101908080359060200190929190505050611bfc565b005b34801561080757600080fd5b50610810611d76565b604051808215151515815260200191505060405180910390f35b34801561083657600080fd5b5061083f611dcd565b005b34801561084d57600080fd5b50610882600480360381019080803573ffffffffffffffffffffffffffffffffffffffff169060200190929190505050611dd8565b604051808215151515815260200191505060405180910390f35b3480156108a857600080fd5b506108b1611df5565b005b3480156108bf57600080fd5b506108de60048036038101908080359060200190929190505050611e00565b005b3480156108ec57600080fd5b50610921600480360381019080803573ffffffffffffffffffffffffffffffffffffffff169060200190929190505050611f79565b005b61094160048036038101908080359060200190929190505050611f99565b005b34801561094f57600080fd5b5061096e60048036038101908080359060200190929190505050612277565b005b34801561097c57600080fd5b506109b1600480360381019080803573ffffffffffffffffffffffffffffffffffffffff1690602001909291905050506123f1565b604051808215151515815260200191505060405180910390f35b3480156109d757600080fd5b50610a0c600480360381019080803573ffffffffffffffffffffffffffffffffffffffff16906020019092919050505061240e565b005b348015610a1a57600080fd5b50610a3960048036038101908080359060200190929190505050612476565b005b348015610a4757600080fd5b50610a506125f0565b604051808273ffffffffffffffffffffffffffffffffffffffff1673ffffffffffffffffffffffffffffffffffffffff16815260200191505060405180910390f35b348015610a9e57600080fd5b50610abd60048036038101908080359060200190929190505050612619565b005b610ac833611bdf565b1515610ad357600080fd5b610adc81612793565b50565b8160036007811115610aed57fe5b60076000838152602001908152602001600020600c0160009054906101000a900460ff166007811115610b1c57fe5b141515610b2857600080fd5b610b31336123f1565b1515610b3c57600080fd5b336007600085815260200190815260200160002060020160006101000a81548173ffffffffffffffffffffffffffffffffffffffff021916908373ffffffffffffffffffffffffffffffffffffffff160217905550336007600085815260200190815260200160002060030160006101000a81548173ffffffffffffffffffffffffffffffffffffffff021916908373ffffffffffffffffffffffffffffffffffffffff1602179055508160076000858152602001908152602001600020600a0181905550600460076000858152602001908152602001600020600c0160006101000a81548160ff02191690836007811115610c3457fe5b02179055507fa96ae0fc3224ebd79eebfe54bd130cc9cb94416cddd1f2386115e00b72532468836040518082815260200191505060405180910390a1505050565b610c7e336123f1565b1515610c8957600080fd5b610c92816127aa565b50565b610c9e33612804565b565b60008060006060600080600080610cb5612c16565b600760008b81526020019081526020016000206101e0604051908101604052908160008201548152602001600182015481526020016002820160009054906101000a900473ffffffffffffffffffffffffffffffffffffffff1673ffffffffffffffffffffffffffffffffffffffff1673ffffffffffffffffffffffffffffffffffffffff1681526020016003820160009054906101000a900473ffffffffffffffffffffffffffffffffffffffff1673ffffffffffffffffffffffffffffffffffffffff1673ffffffffffffffffffffffffffffffffffffffff168152602001600482018054600181600116156101000203166002900480601f016020809104026020016040519081016040528092919081815260200182805460018160011615610100020316600290048015610e2e5780601f10610e0357610100808354040283529160200191610e2e565b820191906000526020600020905b815481529060010190602001808311610e1157829003601f168201915b50505050508152602001600582018054600181600116156101000203166002900480601f016020809104026020016040519081016040528092919081815260200182805460018160011615610100020316600290048015610ed05780601f10610ea557610100808354040283529160200191610ed0565b820191906000526020600020905b815481529060010190602001808311610eb357829003601f168201915b50505050508152602001600682018054600181600116156101000203166002900480601f016020809104026020016040519081016040528092919081815260200182805460018160011615610100020316600290048015610f725780601f10610f4757610100808354040283529160200191610f72565b820191906000526020600020905b815481529060010190602001808311610f5557829003601f168201915b50505050508152602001600782018054600181600116156101000203166002900480601f0160208091040260200160405190810160405280929190818152602001828054600181600116156101000203166002900480156110145780601f10610fe957610100808354040283529160200191611014565b820191906000526020600020905b815481529060010190602001808311610ff757829003601f168201915b5050505050815260200160088201548152602001600982018054600181600116156101000203166002900480601f0160208091040260200160405190810160405280929190818152602001828054600181600116156101000203166002900480156110c05780601f10611095576101008083540402835291602001916110c0565b820191906000526020600020905b8154815290600101906020018083116110a357829003601f168201915b50505050508152602001600a8201548152602001600b8201548152602001600c820160009054906101000a900460ff1660078111156110fb57fe5b600781111561110657fe5b8152602001600c820160019054906101000a900473ffffffffffffffffffffffffffffffffffffffff1673ffffffffffffffffffffffffffffffffffffffff1673ffffffffffffffffffffffffffffffffffffffff168152602001600d820160009054906101000a900473ffffffffffffffffffffffffffffffffffffffff1673ffffffffffffffffffffffffffffffffffffffff1673ffffffffffffffffffffffffffffffffffffffff1681525050905080600001518160200151826101000151836101200151846101400151856101800151866101a00151876101c001518494509850985098509850985098509850985050919395975091939597565b600080611211336123f1565b151561121c57600080fd5b6101e06040519081016040528060065481526020018b81526020013373ffffffffffffffffffffffffffffffffffffffff1681526020018a73ffffffffffffffffffffffffffffffffffffffff1681526020018981526020018881526020018781526020018681526020018581526020018481526020016001815260200160018152602001600060078111156112ae57fe5b81526020018373ffffffffffffffffffffffffffffffffffffffff1681526020018273ffffffffffffffffffffffffffffffffffffffff16815250600760008c8152602001908152602001600020600082015181600001556020820151816001015560408201518160020160006101000a81548173ffffffffffffffffffffffffffffffffffffffff021916908373ffffffffffffffffffffffffffffffffffffffff16021790555060608201518160030160006101000a81548173ffffffffffffffffffffffffffffffffffffffff021916908373ffffffffffffffffffffffffffffffffffffffff16021790555060808201518160040190805190602001906113ba929190612cf0565b5060a08201518160050190805190602001906113d7929190612cf0565b5060c08201518160060190805190602001906113f4929190612cf0565b5060e0820151816007019080519060200190611411929190612cf0565b50610100820151816008015561012082015181600901908051906020019061143a929190612cf0565b5061014082015181600a015561016082015181600b015561018082015181600c0160006101000a81548160ff0219169083600781111561147657fe5b02179055506101a082015181600c0160016101000a81548173ffffffffffffffffffffffffffffffffffffffff021916908373ffffffffffffffffffffffffffffffffffffffff1602179055506101c082015181600d0160006101000a81548173ffffffffffffffffffffffffffffffffffffffff021916908373ffffffffffffffffffffffffffffffffffffffff1602179055509050506001600654016006819055507fbba19da8d116838213738bba933a0b950d375f39821adab661418376b93ac1498a6040518082815260200191505060405180910390a150505050505050505050565b600460009054906101000a900473ffffffffffffffffffffffffffffffffffffffff1673ffffffffffffffffffffffffffffffffffffffff163373ffffffffffffffffffffffffffffffffffffffff161415156115b957600080fd5b600073ffffffffffffffffffffffffffffffffffffffff166000809054906101000a900473ffffffffffffffffffffffffffffffffffffffff1673ffffffffffffffffffffffffffffffffffffffff167f5c486528ec3e3f0ea91181cff8116f02bfa350e03b8b6f12e00765adbb5af85c60405160405180910390a360008060006101000a81548173ffffffffffffffffffffffffffffffffffffffff021916908373ffffffffffffffffffffffffffffffffffffffff160217905550565b60008060008060608060608061168c612c16565b600760008b81526020019081526020016000206101e0604051908101604052908160008201548152602001600182015481526020016002820160009054906101000a900473ffffffffffffffffffffffffffffffffffffffff1673ffffffffffffffffffffffffffffffffffffffff1673ffffffffffffffffffffffffffffffffffffffff1681526020016003820160009054906101000a900473ffffffffffffffffffffffffffffffffffffffff1673ffffffffffffffffffffffffffffffffffffffff1673ffffffffffffffffffffffffffffffffffffffff168152602001600482018054600181600116156101000203166002900480601f0160208091040260200160405190810160405280929190818152602001828054600181600116156101000203166002900480156118055780601f106117da57610100808354040283529160200191611805565b820191906000526020600020905b8154815290600101906020018083116117e857829003601f168201915b50505050508152602001600582018054600181600116156101000203166002900480601f0160208091040260200160405190810160405280929190818152602001828054600181600116156101000203166002900480156118a75780601f1061187c576101008083540402835291602001916118a7565b820191906000526020600020905b81548152906001019060200180831161188a57829003601f168201915b50505050508152602001600682018054600181600116156101000203166002900480601f0160208091040260200160405190810160405280929190818152602001828054600181600116156101000203166002900480156119495780601f1061191e57610100808354040283529160200191611949565b820191906000526020600020905b81548152906001019060200180831161192c57829003601f168201915b50505050508152602001600782018054600181600116156101000203166002900480601f0160208091040260200160405190810160405280929190818152602001828054600181600116156101000203166002900480156119eb5780601f106119c0576101008083540402835291602001916119eb565b820191906000526020600020905b8154815290600101906020018083116119ce57829003601f168201915b5050505050815260200160088201548152602001600982018054600181600116156101000203166002900480601f016020809104026020016040519081016040528092919081815260200182805460018160011615610100020316600290048015611a975780601f10611a6c57610100808354040283529160200191611a97565b820191906000526020600020905b815481529060010190602001808311611a7a57829003601f168201915b50505050508152602001600a8201548152602001600b8201548152602001600c820160009054906101000a900460ff166007811115611ad257fe5b6007811115611add57fe5b8152602001600c820160019054906101000a900473ffffffffffffffffffffffffffffffffffffffff1673ffffffffffffffffffffffffffffffffffffffff1673ffffffffffffffffffffffffffffffffffffffff168152602001600d820160009054906101000a900473ffffffffffffffffffffffffffffffffffffffff1673ffffffffffffffffffffffffffffffffffffffff1673ffffffffffffffffffffffffffffffffffffffff16815250509050806000015181602001518260400151836060015184608001518560a001518660c001518760e001518393508292508191508090509850985098509850985098509850985050919395975091939597565b6000611bf582600161281b90919063ffffffff16565b9050919050565b611c0533611bdf565b1515611c1057600080fd5b8060026007811115611c1e57fe5b60076000838152602001908152602001600020600c0160009054906101000a900460ff166007811115611c4d57fe5b141515611c5957600080fd5b336007600084815260200190815260200160002060020160006101000a81548173ffffffffffffffffffffffffffffffffffffffff021916908373ffffffffffffffffffffffffffffffffffffffff1602179055503360076000848152602001908152602001600020600d0160006101000a81548173ffffffffffffffffffffffffffffffffffffffff021916908373ffffffffffffffffffffffffffffffffffffffff160217905550600360076000848152602001908152602001600020600c0160006101000a81548160ff02191690836007811115611d3657fe5b02179055507f4fedc4de3f6146627aec716c55ed289dedac7c4d09becee2a8e5ae8221123a81826040518082815260200191505060405180910390a15050565b60008060009054906101000a900473ffffffffffffffffffffffffffffffffffffffff1673ffffffffffffffffffffffffffffffffffffffff163373ffffffffffffffffffffffffffffffffffffffff1614905090565b611dd6336128af565b565b6000611dee82600261281b90919063ffffffff16565b9050919050565b611dfe33612909565b565b8060066007811115611e0e57fe5b60076000838152602001908152602001600020600c0160009054906101000a900460ff166007811115611e3d57fe5b141515611e4957600080fd5b611e5233611bdf565b1515611e5d57600080fd5b336007600084815260200190815260200160002060020160006101000a81548173ffffffffffffffffffffffffffffffffffffffff021916908373ffffffffffffffffffffffffffffffffffffffff1602179055503360076000848152602001908152602001600020600d0160006101000a81548173ffffffffffffffffffffffffffffffffffffffff021916908373ffffffffffffffffffffffffffffffffffffffff1602179055506007806000848152602001908152602001600020600c0160006101000a81548160ff02191690836007811115611f3957fe5b02179055507f653d56639fee6b566a5c804764e9689de38645f0b733df89a36a1b7b42173dd8826040518082815260200191505060405180910390a15050565b611f8233611dd8565b1515611f8d57600080fd5b611f9681612963565b50565b60008160046007811115611fa957fe5b60076000838152602001908152602001600020600c0160009054906101000a900460ff166007811115611fd857fe5b141515611fe457600080fd5b60076000848152602001908152602001600020600a015480341015151561200a57600080fd5b8360008061201733611bdf565b151561202257600080fd5b600760006006548152602001908152602001600020600a01549550336007600089815260200190815260200160002060020160006101000a81548173ffffffffffffffffffffffffffffffffffffffff021916908373ffffffffffffffffffffffffffffffffffffffff1602179055503360076000898152602001908152602001600020600d0160006101000a81548173ffffffffffffffffffffffffffffffffffffffff021916908373ffffffffffffffffffffffffffffffffffffffff160217905550600560076000898152602001908152602001600020600c0160006101000a81548160ff0219169083600781111561211a57fe5b02179055506007600088815260200190815260200160002060030160009054906101000a900473ffffffffffffffffffffffffffffffffffffffff1673ffffffffffffffffffffffffffffffffffffffff166108fc879081150290604051600060405180830381858888f1935050505015801561219b573d6000803e3d6000fd5b507f92f64ca637d023f354075a4be751b169c1a8a9ccb6d33cdd0cb3520543995727876040518082815260200191505060405180910390a160076000848152602001908152602001600020600a01549150813403905060076000848152602001908152602001600020600d0160009054906101000a900473ffffffffffffffffffffffffffffffffffffffff1673ffffffffffffffffffffffffffffffffffffffff166108fc829081150290604051600060405180830381858888f1935050505015801561226d573d6000803e3d6000fd5b5050505050505050565b612280336123f1565b151561228b57600080fd5b806001600781111561229957fe5b60076000838152602001908152602001600020600c0160009054906101000a900460ff1660078111156122c857fe5b1415156122d457600080fd5b336007600084815260200190815260200160002060020160006101000a81548173ffffffffffffffffffffffffffffffffffffffff021916908373ffffffffffffffffffffffffffffffffffffffff160217905550336007600084815260200190815260200160002060030160006101000a81548173ffffffffffffffffffffffffffffffffffffffff021916908373ffffffffffffffffffffffffffffffffffffffff160217905550600260076000848152602001908152602001600020600c0160006101000a81548160ff021916908360078111156123b157fe5b02179055507f376bc3664e237a897179c3c1ddc5b8ef6318ad79c1b7819a305b0e23263f868d826040518082815260200191505060405180910390a15050565b600061240782600361281b90919063ffffffff16565b9050919050565b600460009054906101000a900473ffffffffffffffffffffffffffffffffffffffff1673ffffffffffffffffffffffffffffffffffffffff163373ffffffffffffffffffffffffffffffffffffffff1614151561246a57600080fd5b612473816129bd565b50565b806005600781111561248457fe5b60076000838152602001908152602001600020600c0160009054906101000a900460ff1660078111156124b357fe5b1415156124bf57600080fd5b6124c8336123f1565b15156124d357600080fd5b336007600084815260200190815260200160002060020160006101000a81548173ffffffffffffffffffffffffffffffffffffffff021916908373ffffffffffffffffffffffffffffffffffffffff160217905550336007600084815260200190815260200160002060030160006101000a81548173ffffffffffffffffffffffffffffffffffffffff021916908373ffffffffffffffffffffffffffffffffffffffff160217905550600660076000848152602001908152602001600020600c0160006101000a81548160ff021916908360078111156125b057fe5b02179055507ff00b9a5725b80c54016f42114f6ed7792d22eecb116011c4afac29c57bef6c95826040518082815260200191505060405180910390a15050565b60008060009054906101000a900473ffffffffffffffffffffffffffffffffffffffff16905090565b61262233611dd8565b151561262d57600080fd5b806000600781111561263b57fe5b60076000838152602001908152602001600020600c0160009054906101000a900460ff16600781111561266a57fe5b14151561267657600080fd5b336007600084815260200190815260200160002060020160006101000a81548173ffffffffffffffffffffffffffffffffffffffff021916908373ffffffffffffffffffffffffffffffffffffffff1602179055503360076000848152602001908152602001600020600c0160016101000a81548173ffffffffffffffffffffffffffffffffffffffff021916908373ffffffffffffffffffffffffffffffffffffffff160217905550600160076000848152602001908152602001600020600c0160006101000a81548160ff0219169083600781111561275357fe5b02179055507f0fd28664df0e84ad83c0dcbd382d4fd80d870562b74c1b37a1f3e6fe6ce4862c826040518082815260200191505060405180910390a15050565b6127a7816001612ab790919063ffffffff16565b50565b6127be816003612ab790919063ffffffff16565b8073ffffffffffffffffffffffffffffffffffffffff167f021a687fbe334e9e815cee8b399c0bc42e82356eb7f63a09ddb558a25d3dcdbd60405160405180910390a250565b612818816001612b6790919063ffffffff16565b50565b60008073ffffffffffffffffffffffffffffffffffffffff168273ffffffffffffffffffffffffffffffffffffffff161415151561285857600080fd5b8260000160008373ffffffffffffffffffffffffffffffffffffffff1673ffffffffffffffffffffffffffffffffffffffff16815260200190815260200160002060009054906101000a900460ff16905092915050565b6128c3816002612b6790919063ffffffff16565b8073ffffffffffffffffffffffffffffffffffffffff167f9ebabfcf7586bd9e26cef64918d755359eb8b878650b23b77105b0963082e34860405160405180910390a250565b61291d816003612b6790919063ffffffff16565b8073ffffffffffffffffffffffffffffffffffffffff167f94a409f50d78dc8628b7499ba5af0848a134b9a935a59c0a45313b67f66920f860405160405180910390a250565b612977816002612ab790919063ffffffff16565b8073ffffffffffffffffffffffffffffffffffffffff167f2973ec437ba0a6207102c44c409e03815ee1cc4624578ad40d3e4c50f978559160405160405180910390a250565b600073ffffffffffffffffffffffffffffffffffffffff168173ffffffffffffffffffffffffffffffffffffffff16141515156129f957600080fd5b8073ffffffffffffffffffffffffffffffffffffffff166000809054906101000a900473ffffffffffffffffffffffffffffffffffffffff1673ffffffffffffffffffffffffffffffffffffffff167f5c486528ec3e3f0ea91181cff8116f02bfa350e03b8b6f12e00765adbb5af85c60405160405180910390a3806000806101000a81548173ffffffffffffffffffffffffffffffffffffffff021916908373ffffffffffffffffffffffffffffffffffffffff16021790555050565b600073ffffffffffffffffffffffffffffffffffffffff168173ffffffffffffffffffffffffffffffffffffffff1614151515612af357600080fd5b612afd828261281b565b151515612b0957600080fd5b60018260000160008373ffffffffffffffffffffffffffffffffffffffff1673ffffffffffffffffffffffffffffffffffffffff16815260200190815260200160002060006101000a81548160ff0219169083151502179055505050565b600073ffffffffffffffffffffffffffffffffffffffff168173ffffffffffffffffffffffffffffffffffffffff1614151515612ba357600080fd5b612bad828261281b565b1515612bb857600080fd5b60008260000160008373ffffffffffffffffffffffffffffffffffffffff1673ffffffffffffffffffffffffffffffffffffffff16815260200190815260200160002060006101000a81548160ff0219169083151502179055505050565b6101e0604051908101604052806000815260200160008152602001600073ffffffffffffffffffffffffffffffffffffffff168152602001600073ffffffffffffffffffffffffffffffffffffffff168152602001606081526020016060815260200160608152602001606081526020016000815260200160608152602001600081526020016000815260200160006007811115612cb057fe5b8152602001600073ffffffffffffffffffffffffffffffffffffffff168152602001600073ffffffffffffffffffffffffffffffffffffffff1681525090565b828054600181600116156101000203166002900490600052602060002090601f016020900481019282601f10612d3157805160ff1916838001178555612d5f565b82800160010185558215612d5f579182015b82811115612d5e578251825591602001919060010190612d43565b5b509050612d6c9190612d70565b5090565b612d9291905b80821115612d8e576000816000905550600101612d76565b5090565b905600a165627a7a72305820cdbca8b845e44936a5fcdee5ce0581747556f869f3ff48297f012fe82b43a1000029",
  "source": "pragma solidity ^0.4.24;\n\nimport \"../coffeeaccesscontrol/CreatorRole.sol\";\nimport \"../coffeeaccesscontrol/EditorRole.sol\";\nimport \"../coffeeaccesscontrol/ConsumerRole.sol\";\nimport \"../coffeecore/Ownable.sol\";\n\n// Define a contract 'Supplychain'\ncontract SupplyChain is Ownable, ConsumerRole, EditorRole, CreatorRole {\n\n    // Define 'owner'\n    address owner;\n\n    // Define a variable called 'upc' for Universal Product Code (UPC)\n    uint  upc;\n\n    // Define a variable called 'sku' for Stock Keeping Unit (SKU)\n    uint  sku;\n\n    // Define a public mapping 'items' that maps the UPC to an Item.\n    mapping(uint => Item) items;\n\n    // Define a public mapping 'itemsHistory' that maps the UPC to an array of TxHash,\n    // that track its journey through the supply chain -- to be sent from DApp.\n    mapping(uint => string[]) itemsHistory;\n\n    // Define enum 'State' with the following values:\n    enum State\n    {\n        Written, // 0\n        Edited, // 1\n        Published, // 2\n        Read, // 3\n        ForSale, // 4\n        Sold, // 5\n        Shipped, // 6\n        Purchased // 7\n    }\n\n    State constant defaultState = State.Written;\n\n    // Define a struct 'Item' with the following fields:\n    struct Item {\n        uint sku;  // Stock Keeping Unit (SKU)\n        uint upc; // Universal Product Code (UPC), generated by the creator, goes on product can be verified by the Consumer\n        address ownerID;  // Metamask-Ethereum address of the current owner as the product moves through 5 stages\n        address originCreatorID; // Metamask-Ethereum address of the Farmer\n        string originCreatorName; // Creator Name\n        string originCreatorInformation;  // Creator Information\n        string originPoemCountry; // Poem Country\n        string originPoemTitle;  // Poem Type\n        uint productID;  // Product ID potentially a combination of upc + sku\n        string productNotes; // Product Notes\n        uint productPrice; // Product Price\n        uint editingPrice; // Product editing price\n        State itemState;  // Product State as represented in the enum above\n        address editorID;  // Metamask-Ethereum address of the Distributor\n        address consumerID; // Metamask-Ethereum address of the Consumer\n    }\n\n    // Define 8 events with the same 8 state values and accept 'upc' as input argument\n    event Written(uint upc);\n    event Edited(uint upc);\n    event Published(uint upc);\n    event Read(uint upc);\n    event ForSale(uint upc);\n    event Sold(uint upc);\n    event Shipped(uint upc);\n    event Purchased(uint upc);\n\n    // Define a modifer that checks to see if msg.sender == owner of the contract\n    modifier onlyOwner() {\n        require(msg.sender == owner);\n        _;\n    }\n\n    // Define a modifer that verifies the Caller\n    modifier verifyCaller (address _address) {\n        require(msg.sender == _address);\n        _;\n    }\n\n    // Define a modifier that checks if the paid amount is sufficient to cover the price\n    modifier paidEnough(uint _price) {\n        require(msg.value >= _price);\n        _;\n    }\n\n    // Define a modifier that checks the price and refunds the remaining balance\n    modifier checkValue(uint _upc) {\n        _;\n        uint _price = items[_upc].productPrice;\n        uint amountToReturn = msg.value - _price;\n        items[_upc].consumerID.transfer(amountToReturn);\n    }\n\n    // Define a modifier that checks if an item.state of a upc is Written\n    modifier written(uint _upc) {\n        require(items[_upc].itemState == State.Written);\n        _;\n    }\n\n    // Define a modifier that checks if an item.state of a upc is Edited\n    modifier edited(uint _upc) {\n        require(items[_upc].itemState == State.Edited);\n        _;\n    }\n\n\n    // Define a modifier that checks if an item.state of a upc is Published\n    modifier published(uint _upc) {\n        require(items[_upc].itemState == State.Published);\n        _;\n    }\n\n    // Define a modifier that checks if an item.state of a upc is Read\n    modifier read(uint _upc) {\n        require(items[_upc].itemState == State.Read);\n        _;\n    }\n\n    // Define a modifier that checks if an item.state of a upc is ForSale\n    modifier forSale(uint _upc) {\n        require(items[_upc].itemState == State.ForSale);\n        _;\n    }\n\n    // Define a modifier that checks if an item.state of a upc is Sold\n    modifier sold(uint _upc) {\n        require(items[_upc].itemState == State.Sold);\n        _;\n    }\n\n    // Define a modifier that checks if an item.state of a upc is Shipped\n    modifier shipped(uint _upc) {\n        require(items[_upc].itemState == State.Shipped);\n        _;\n    }\n\n    // Define a modifier that checks if an item.state of a upc is Purchased\n    modifier purchased(uint _upc) {\n        require(items[_upc].itemState == State.Purchased);\n        _;\n    }\n\n    // In the constructor set 'owner' to the address that instantiated the contract\n    // and set 'sku' to 1\n    // and set 'upc' to 1\n    constructor() public payable {\n        owner = msg.sender;\n        sku = 1;\n        upc = 1;\n    }\n\n    // Define a function 'writeItem' that allows a farmer to mark an item 'Written'\n    function writeItem(uint _upc, address _originCreatorID, string _originCreatorName, string _originCreatorInformation, string _originPoemCountry, string _originPoemTitle, uint _productID, string _productNotes) public\n    onlyCreator()\n    {\n        address editorID;\n        // empty editorID address\n        address consumerID;\n        // empty consumerID address\n        // Add the new item as part of Written\n        items[_upc] = Item({sku : sku, upc : _upc, ownerID : msg.sender, originCreatorID : _originCreatorID, originCreatorName : _originCreatorName, originCreatorInformation : _originCreatorInformation, originPoemCountry : _originPoemCountry, originPoemTitle : _originPoemTitle, productID : _productID, productNotes : _productNotes, productPrice : 1, itemState : State.Written, consumerID : consumerID, editorID : editorID, editingPrice : 1});\n\n        // Increment sku\n        sku = sku + 1;\n\n        // Emit the appropriate event\n        emit Written(_upc);\n    }\n\n    // Define a function 'editItem' that allows a creator to mark an item 'Edited'\n    function editItem(uint _upc) public\n        // Call modifier to check if upc has passed previous supply chain stage\n    onlyEditor()\n    written(_upc)\n    {\n        // Update the appropriate fields\n        items[_upc].ownerID = msg.sender;\n        // update owner\n        items[_upc].editorID = msg.sender;\n        items[_upc].itemState = State.Edited;\n        // Emit the appropriate event\n        emit Edited(_upc);\n    }\n\n    // Define a function 'publishItem' that allows a creator to mark an item 'Published'\n    function publishItem(uint _upc) public\n        // Call modifier to verify caller of this function\n    onlyCreator()\n        // Call modifier to check if upc has passed previous supply chain stage\n    edited(_upc)\n    {\n        items[_upc].ownerID = msg.sender;\n        items[_upc].originCreatorID = msg.sender;\n        // Update the appropriate fields\n        items[_upc].itemState = State.Published;\n\n        // Emit the appropriate event\n        emit Published(_upc);\n\n    }\n\n    // Define a function 'readItem' that allows a consumer to mark an item 'Read'\n    function readItem(uint _upc) public\n        // Call modifier to verify caller of this function\n    onlyConsumer()\n        // Call modifier to check if upc has passed previous supply chain stage\n    published(_upc)\n    {\n        // Update the appropriate fields\n        items[_upc].ownerID = msg.sender;\n        items[_upc].consumerID = msg.sender;\n        items[_upc].itemState = State.Read;\n        // Emit the appropriate event\n        emit Read(_upc);\n    }\n\n    // Define a function 'sellItem' that allows a creator to mark an item 'ForSale'\n    function sellItem(uint _upc, uint _price) public\n        // Call modifier to check if upc has passed previous supply chain stage\n    read(_upc)\n        // Call modifier to verify caller of this function\n    onlyCreator()\n\n    {\n        items[_upc].ownerID = msg.sender;\n        items[_upc].originCreatorID = msg.sender;\n        // Update the appropriate fields\n        items[_upc].productPrice = _price;\n        items[_upc].itemState = State.ForSale;\n        // Emit the appropriate event\n        emit ForSale(_upc);\n    }\n\n    // Define a function 'buyItem' that allows the creator to mark an item 'Sold'\n    // Use the above defined modifiers to check if the item is available for sale, if the buyer has paid enough,\n    // and any excess ether sent is refunded back to the buyer\n    function buyItem(uint _upc) public payable\n        // Call modifier to check if upc has passed previous supply chain stage\n    forSale(_upc)\n        // Call modifer to check if buyer has paid enough\n    paidEnough(items[_upc].productPrice)\n        // Call modifer to send any excess ether back to buyer\n    checkValue(_upc)\n    onlyConsumer()\n    {\n        // Update the appropriate fields - ownerID, distributorID, itemState\n        uint price = items[sku].productPrice;\n        items[_upc].ownerID = msg.sender;\n        items[_upc].consumerID = msg.sender;\n        items[_upc].itemState = State.Sold;\n        // Transfer money to farmer\n        items[_upc].originCreatorID.transfer(price);\n        // emit the appropriate event\n        emit Sold(_upc);\n    }\n\n    // Define a function 'shipItem' that allows the creator to mark an item 'Shipped'\n    // Use the above modifers to check if the item is sold\n    function shipItem(uint _upc) public\n        // Call modifier to check if upc has passed previous supply chain stage\n    sold(_upc)\n        // Call modifier to verify caller of this function\n    onlyCreator()\n    {\n        // Update the appropriate fields\n        items[_upc].ownerID = msg.sender;\n        items[_upc].originCreatorID = msg.sender;\n        items[_upc].itemState = State.Shipped;\n        // Emit the appropriate event\n        emit Shipped(_upc);\n    }\n\n    // Define a function 'purchaseItem' that allows the consumer to mark an item 'Purchased'\n    // Use the above modifiers to check if the item is received\n\n    function purchaseItem(uint _upc) public\n        // Call modifier to check if upc has passed previous supply chain stage\n    shipped(_upc)\n        // Access Control List enforced by calling Smart Contract / DApp\n    onlyConsumer()\n    {\n        // Update the appropriate fields - ownerID, consumerID, itemState\n        items[_upc].ownerID = msg.sender;\n        items[_upc].consumerID = msg.sender;\n        items[_upc].itemState = State.Purchased;\n        // Emit the appropriate event\n        emit Purchased(_upc);\n    }\n\n    // Define a function 'fetchItemBufferOne' that fetches the data\n    function fetchItemBufferOne(uint _upc) public view returns\n    (\n        uint itemSKU,\n        uint itemUPC,\n        address ownerID,\n        address originCreatorID,\n        string originCreatorName,\n        string originCreatorInformation,\n        string originPoemCountry,\n        string originPoemTitle\n    )\n    {\n        // Assign values to the 8 parameters\n        Item memory item = items[_upc];\n        return\n        (\n        item.sku,\n        item.upc,\n        item.ownerID,\n        item.originCreatorID,\n        item.originCreatorName,\n        item.originCreatorInformation,\n        item.originPoemCountry,\n        item.originPoemTitle\n        );\n    }\n\n    // Define a function 'fetchItemBufferTwo' that fetches the data\n    function fetchItemBufferTwo(uint _upc) public view returns\n    (\n        uint itemSKU,\n        uint itemUPC,\n        uint productID,\n        string productNotes,\n        uint productPrice,\n        State itemState,\n        address editorID,\n        address consumerID\n    )\n    {\n        // Assign values to the 9 parameters\n        Item memory item = items[_upc];\n        return\n        (\n        item.sku,\n        item.upc,\n        item.productID,\n        item.productNotes,\n        item.productPrice,\n        item.itemState,\n        item.editorID,\n        item.consumerID\n        );\n    }\n}\n",
  "sourcePath": "/Users/afopefoluwaojo/code/supply-chain/project-6/contracts/coffeebase/SupplyChain.sol",
  "compiler": {
    "name": "solc",
    "version": "0.4.24+commit.e67f0147.Emscripten.clang"
  },
  "schemaVersion": "2.0.1",
  "updatedAt": "2020-06-17T20:10:56.779Z"
}