{
  "contractName": "SupplyChain",
  "abi": [
    {
      "constant": false,
      "inputs": [
        {
          "name": "account",
          "type": "address"
        }
      ],
      "name": "addConsumer",
      "outputs": [],
      "payable": false,
      "stateMutability": "nonpayable",
      "type": "function"
    },
    {
      "constant": false,
      "inputs": [
        {
          "name": "account",
          "type": "address"
        }
      ],
      "name": "addCreator",
      "outputs": [],
      "payable": false,
      "stateMutability": "nonpayable",
      "type": "function"
    },
    {
      "constant": false,
      "inputs": [],
      "name": "renounceConsumer",
      "outputs": [],
      "payable": false,
      "stateMutability": "nonpayable",
      "type": "function"
    },
    {
      "constant": false,
      "inputs": [],
      "name": "renounceOwnership",
      "outputs": [],
      "payable": false,
      "stateMutability": "nonpayable",
      "type": "function"
    },
    {
      "constant": true,
      "inputs": [
        {
          "name": "account",
          "type": "address"
        }
      ],
      "name": "isConsumer",
      "outputs": [
        {
          "name": "",
          "type": "bool"
        }
      ],
      "payable": false,
      "stateMutability": "view",
      "type": "function"
    },
    {
      "constant": true,
      "inputs": [],
      "name": "owner",
      "outputs": [
        {
          "name": "",
          "type": "address"
        }
      ],
      "payable": false,
      "stateMutability": "view",
      "type": "function"
    },
    {
      "constant": true,
      "inputs": [],
      "name": "isOwner",
      "outputs": [
        {
          "name": "",
          "type": "bool"
        }
      ],
      "payable": false,
      "stateMutability": "view",
      "type": "function"
    },
    {
      "constant": false,
      "inputs": [],
      "name": "renounceEditor",
      "outputs": [],
      "payable": false,
      "stateMutability": "nonpayable",
      "type": "function"
    },
    {
      "constant": true,
      "inputs": [
        {
          "name": "account",
          "type": "address"
        }
      ],
      "name": "isEditor",
      "outputs": [
        {
          "name": "",
          "type": "bool"
        }
      ],
      "payable": false,
      "stateMutability": "view",
      "type": "function"
    },
    {
      "constant": false,
      "inputs": [],
      "name": "renounceCreator",
      "outputs": [],
      "payable": false,
      "stateMutability": "nonpayable",
      "type": "function"
    },
    {
      "constant": false,
      "inputs": [
        {
          "name": "account",
          "type": "address"
        }
      ],
      "name": "addEditor",
      "outputs": [],
      "payable": false,
      "stateMutability": "nonpayable",
      "type": "function"
    },
    {
      "constant": true,
      "inputs": [
        {
          "name": "account",
          "type": "address"
        }
      ],
      "name": "isCreator",
      "outputs": [
        {
          "name": "",
          "type": "bool"
        }
      ],
      "payable": false,
      "stateMutability": "view",
      "type": "function"
    },
    {
      "constant": false,
      "inputs": [
        {
          "name": "newOwner",
          "type": "address"
        }
      ],
      "name": "transferOwnership",
      "outputs": [],
      "payable": false,
      "stateMutability": "nonpayable",
      "type": "function"
    },
    {
      "inputs": [],
      "payable": true,
      "stateMutability": "payable",
      "type": "constructor"
    },
    {
      "anonymous": false,
      "inputs": [
        {
          "indexed": false,
          "name": "upc",
          "type": "uint256"
        }
      ],
      "name": "Written",
      "type": "event"
    },
    {
      "anonymous": false,
      "inputs": [
        {
          "indexed": false,
          "name": "upc",
          "type": "uint256"
        }
      ],
      "name": "Edited",
      "type": "event"
    },
    {
      "anonymous": false,
      "inputs": [
        {
          "indexed": false,
          "name": "upc",
          "type": "uint256"
        }
      ],
      "name": "Published",
      "type": "event"
    },
    {
      "anonymous": false,
      "inputs": [
        {
          "indexed": false,
          "name": "upc",
          "type": "uint256"
        }
      ],
      "name": "Read",
      "type": "event"
    },
    {
      "anonymous": false,
      "inputs": [
        {
          "indexed": false,
          "name": "upc",
          "type": "uint256"
        }
      ],
      "name": "ForSale",
      "type": "event"
    },
    {
      "anonymous": false,
      "inputs": [
        {
          "indexed": false,
          "name": "upc",
          "type": "uint256"
        }
      ],
      "name": "Sold",
      "type": "event"
    },
    {
      "anonymous": false,
      "inputs": [
        {
          "indexed": false,
          "name": "upc",
          "type": "uint256"
        }
      ],
      "name": "Shipped",
      "type": "event"
    },
    {
      "anonymous": false,
      "inputs": [
        {
          "indexed": false,
          "name": "upc",
          "type": "uint256"
        }
      ],
      "name": "Purchased",
      "type": "event"
    },
    {
      "anonymous": false,
      "inputs": [
        {
          "indexed": true,
          "name": "account",
          "type": "address"
        }
      ],
      "name": "CreatorAdded",
      "type": "event"
    },
    {
      "anonymous": false,
      "inputs": [
        {
          "indexed": true,
          "name": "account",
          "type": "address"
        }
      ],
      "name": "CreatorRemoved",
      "type": "event"
    },
    {
      "anonymous": false,
      "inputs": [
        {
          "indexed": true,
          "name": "account",
          "type": "address"
        }
      ],
      "name": "EditorAdded",
      "type": "event"
    },
    {
      "anonymous": false,
      "inputs": [
        {
          "indexed": true,
          "name": "account",
          "type": "address"
        }
      ],
      "name": "EditorRemoved",
      "type": "event"
    },
    {
      "anonymous": false,
      "inputs": [
        {
          "indexed": true,
          "name": "account",
          "type": "address"
        }
      ],
      "name": "ConsumerAdded",
      "type": "event"
    },
    {
      "anonymous": false,
      "inputs": [
        {
          "indexed": true,
          "name": "account",
          "type": "address"
        }
      ],
      "name": "ConsumerRemoved",
      "type": "event"
    },
    {
      "anonymous": false,
      "inputs": [
        {
          "indexed": true,
          "name": "oldOwner",
          "type": "address"
        },
        {
          "indexed": true,
          "name": "newOwner",
          "type": "address"
        }
      ],
      "name": "TransferOwnership",
      "type": "event"
    },
    {
      "constant": false,
      "inputs": [
        {
          "name": "_upc",
          "type": "uint256"
        },
        {
          "name": "_originCreatorID",
          "type": "address"
        },
        {
          "name": "_originCreatorName",
          "type": "string"
        },
        {
          "name": "_originCreatorInformation",
          "type": "string"
        },
        {
          "name": "_originPoemCountry",
          "type": "string"
        },
        {
          "name": "_originPoemTitle",
          "type": "string"
        },
        {
          "name": "_productID",
          "type": "uint256"
        },
        {
          "name": "_productNotes",
          "type": "string"
        }
      ],
      "name": "writeItem",
      "outputs": [],
      "payable": false,
      "stateMutability": "nonpayable",
      "type": "function"
    },
    {
      "constant": false,
      "inputs": [
        {
          "name": "_upc",
          "type": "uint256"
        }
      ],
      "name": "editItem",
      "outputs": [],
      "payable": true,
      "stateMutability": "payable",
      "type": "function"
    },
    {
      "constant": false,
      "inputs": [
        {
          "name": "_upc",
          "type": "uint256"
        }
      ],
      "name": "publishItem",
      "outputs": [],
      "payable": false,
      "stateMutability": "nonpayable",
      "type": "function"
    },
    {
      "constant": false,
      "inputs": [
        {
          "name": "_upc",
          "type": "uint256"
        }
      ],
      "name": "readItem",
      "outputs": [],
      "payable": false,
      "stateMutability": "nonpayable",
      "type": "function"
    },
    {
      "constant": false,
      "inputs": [
        {
          "name": "_upc",
          "type": "uint256"
        },
        {
          "name": "_price",
          "type": "uint256"
        }
      ],
      "name": "sellItem",
      "outputs": [],
      "payable": false,
      "stateMutability": "nonpayable",
      "type": "function"
    },
    {
      "constant": false,
      "inputs": [
        {
          "name": "_upc",
          "type": "uint256"
        }
      ],
      "name": "buyItem",
      "outputs": [],
      "payable": true,
      "stateMutability": "payable",
      "type": "function"
    },
    {
      "constant": false,
      "inputs": [
        {
          "name": "_upc",
          "type": "uint256"
        }
      ],
      "name": "purchaseItem",
      "outputs": [],
      "payable": false,
      "stateMutability": "nonpayable",
      "type": "function"
    },
    {
      "constant": true,
      "inputs": [
        {
          "name": "_upc",
          "type": "uint256"
        }
      ],
      "name": "fetchItemBufferOne",
      "outputs": [
        {
          "name": "itemSKU",
          "type": "uint256"
        },
        {
          "name": "itemUPC",
          "type": "uint256"
        },
        {
          "name": "ownerID",
          "type": "address"
        },
        {
          "name": "originCreatorID",
          "type": "address"
        },
        {
          "name": "originCreatorName",
          "type": "string"
        },
        {
          "name": "originCreatorInformation",
          "type": "string"
        },
        {
          "name": "originPoemCountry",
          "type": "string"
        },
        {
          "name": "originPoemTitle",
          "type": "string"
        }
      ],
      "payable": false,
      "stateMutability": "pure",
      "type": "function"
    },
    {
      "constant": true,
      "inputs": [
        {
          "name": "_upc",
          "type": "uint256"
        }
      ],
      "name": "fetchItemBufferTwo",
      "outputs": [
        {
          "name": "itemSKU",
          "type": "uint256"
        },
        {
          "name": "itemUPC",
          "type": "uint256"
        },
        {
          "name": "productID",
          "type": "uint256"
        },
        {
          "name": "productNotes",
          "type": "string"
        },
        {
          "name": "productPrice",
          "type": "uint256"
        },
        {
          "name": "itemState",
          "type": "uint256"
        },
        {
          "name": "editorID",
          "type": "address"
        },
        {
          "name": "consumerID",
          "type": "address"
        }
      ],
      "payable": false,
      "stateMutability": "pure",
      "type": "function"
    }
  ],
  "bytecode": "0x6080604052336000806101000a81548173ffffffffffffffffffffffffffffffffffffffff021916908373ffffffffffffffffffffffffffffffffffffffff1602179055506000809054906101000a900473ffffffffffffffffffffffffffffffffffffffff1673ffffffffffffffffffffffffffffffffffffffff16600073ffffffffffffffffffffffffffffffffffffffff167f5c486528ec3e3f0ea91181cff8116f02bfa350e03b8b6f12e00765adbb5af85c60405160405180910390a3620000da336200013e640100000000026401000000009004565b620000f43362000165640100000000026401000000009004565b6200010e33620001cf640100000000026401000000009004565b6200012762000239640100000000026401000000009004565b5060016005819055506001600481905550620003ba565b62000162816001620002626401000000000262001c95179091906401000000009004565b50565b62000189816002620002626401000000000262001c95179091906401000000009004565b8073ffffffffffffffffffffffffffffffffffffffff167f2973ec437ba0a6207102c44c409e03815ee1cc4624578ad40d3e4c50f978559160405160405180910390a250565b620001f3816003620002626401000000000262001c95179091906401000000009004565b8073ffffffffffffffffffffffffffffffffffffffff167f021a687fbe334e9e815cee8b399c0bc42e82356eb7f63a09ddb558a25d3dcdbd60405160405180910390a250565b60008060009054906101000a900473ffffffffffffffffffffffffffffffffffffffff16905090565b600073ffffffffffffffffffffffffffffffffffffffff168173ffffffffffffffffffffffffffffffffffffffff16141515156200029f57600080fd5b620002ba828262000325640100000000026401000000009004565b151515620002c757600080fd5b60018260000160008373ffffffffffffffffffffffffffffffffffffffff1673ffffffffffffffffffffffffffffffffffffffff16815260200190815260200160002060006101000a81548160ff0219169083151502179055505050565b60008073ffffffffffffffffffffffffffffffffffffffff168273ffffffffffffffffffffffffffffffffffffffff16141515156200036357600080fd5b8260000160008373ffffffffffffffffffffffffffffffffffffffff1673ffffffffffffffffffffffffffffffffffffffff16815260200190815260200160002060009054906101000a900460ff16905092915050565b611ec580620003ca6000396000f300608060405260043610610128576000357c0100000000000000000000000000000000000000000000000000000000900463ffffffff168063112940f91461012d5780632d923561146101705780633b9dce05146101a757806361e6982d146101ea57806366225ff9146102015780636b9fd3d514610330578063715018a6146104e557806377c45913146104fc578063834ff7391461075a578063838b96bd146107b55780638da5cb5b146107e25780638f32d59b14610839578063a01b86d014610868578063a07481541461087f578063ca2311be146108da578063d38ea5bf146108f1578063e5975bdc1461091e578063e7fb74c714610961578063ea29fc9614610981578063efd46065146109ae578063f2fde38b14610a09578063f96f50fd14610a4c575b600080fd5b34801561013957600080fd5b5061016e600480360381019080803573ffffffffffffffffffffffffffffffffffffffff169060200190929190505050610a6c565b005b34801561017c57600080fd5b506101a56004803603810190808035906020019092919080359060200190929190505050610a8c565b005b3480156101b357600080fd5b506101e8600480360381019080803573ffffffffffffffffffffffffffffffffffffffff169060200190929190505050610b7c565b005b3480156101f657600080fd5b506101ff610b9c565b005b34801561020d57600080fd5b5061022c60048036038101908080359060200190929190505050610ba7565b60405180898152602001888152602001878152602001806020018681526020018581526020018473ffffffffffffffffffffffffffffffffffffffff1673ffffffffffffffffffffffffffffffffffffffff1681526020018373ffffffffffffffffffffffffffffffffffffffff1673ffffffffffffffffffffffffffffffffffffffff168152602001828103825287818151815260200191508051906020019080838360005b838110156102ee5780820151818401526020810190506102d3565b50505050905090810190601f16801561031b5780820380516001836020036101000a031916815260200191505b50995050505050505050505060405180910390f35b34801561033c57600080fd5b506104e360048036038101908080359060200190929190803573ffffffffffffffffffffffffffffffffffffffff169060200190929190803590602001908201803590602001908080601f0160208091040260200160405190810160405280939291908181526020018383808284378201915050505050509192919290803590602001908201803590602001908080601f0160208091040260200160405190810160405280939291908181526020018383808284378201915050505050509192919290803590602001908201803590602001908080601f0160208091040260200160405190810160405280939291908181526020018383808284378201915050505050509192919290803590602001908201803590602001908080601f016020809104026020016040519081016040528093929190818152602001838380828437820191505050505050919291929080359060200190929190803590602001908201803590602001908080601f0160208091040260200160405190810160405280939291908181526020018383808284378201915050505050509192919290505050610bd7565b005b3480156104f157600080fd5b506104fa610f1a565b005b34801561050857600080fd5b506105276004803603810190808035906020019092919050505061101a565b604051808981526020018881526020018773ffffffffffffffffffffffffffffffffffffffff1673ffffffffffffffffffffffffffffffffffffffff1681526020018673ffffffffffffffffffffffffffffffffffffffff1673ffffffffffffffffffffffffffffffffffffffff16815260200180602001806020018060200180602001858103855289818151815260200191508051906020019080838360005b838110156105e35780820151818401526020810190506105c8565b50505050905090810190601f1680156106105780820380516001836020036101000a031916815260200191505b50858103845288818151815260200191508051906020019080838360005b8381101561064957808201518184015260208101905061062e565b50505050905090810190601f1680156106765780820380516001836020036101000a031916815260200191505b50858103835287818151815260200191508051906020019080838360005b838110156106af578082015181840152602081019050610694565b50505050905090810190601f1680156106dc5780820380516001836020036101000a031916815260200191505b50858103825286818151815260200191508051906020019080838360005b838110156107155780820151818401526020810190506106fa565b50505050905090810190601f1680156107425780820380516001836020036101000a031916815260200191505b509c5050505050505050505050505060405180910390f35b34801561076657600080fd5b5061079b600480360381019080803573ffffffffffffffffffffffffffffffffffffffff169060200190929190505050611049565b604051808215151515815260200191505060405180910390f35b3480156107c157600080fd5b506107e060048036038101908080359060200190929190505050611066565b005b3480156107ee57600080fd5b506107f7611138565b604051808273ffffffffffffffffffffffffffffffffffffffff1673ffffffffffffffffffffffffffffffffffffffff16815260200191505060405180910390f35b34801561084557600080fd5b5061084e611161565b604051808215151515815260200191505060405180910390f35b34801561087457600080fd5b5061087d6111b8565b005b34801561088b57600080fd5b506108c0600480360381019080803573ffffffffffffffffffffffffffffffffffffffff1690602001909291905050506111c3565b604051808215151515815260200191505060405180910390f35b3480156108e657600080fd5b506108ef6111e0565b005b3480156108fd57600080fd5b5061091c600480360381019080803590602001909291905050506111eb565b005b34801561092a57600080fd5b5061095f600480360381019080803573ffffffffffffffffffffffffffffffffffffffff169060200190929190505050611319565b005b61097f60048036038101908080359060200190929190505050611339565b005b34801561098d57600080fd5b506109ac600480360381019080803590602001909291905050506115a3565b005b3480156109ba57600080fd5b506109ef600480360381019080803573ffffffffffffffffffffffffffffffffffffffff169060200190929190505050611675565b604051808215151515815260200191505060405180910390f35b348015610a1557600080fd5b50610a4a600480360381019080803573ffffffffffffffffffffffffffffffffffffffff169060200190929190505050611692565b005b610a6a600480360381019080803590602001909291905050506116df565b005b610a7533611049565b1515610a8057600080fd5b610a8981611971565b50565b8160026006811115610a9a57fe5b60066000838152602001908152602001600020600c0160009054906101000a900460ff166006811115610ac957fe5b141515610ad557600080fd5b610ade33611675565b1515610ae957600080fd5b81600660006005548152602001908152602001600020600a01819055506004600660006005548152602001908152602001600020600c0160006101000a81548160ff02191690836006811115610b3b57fe5b02179055507fa96ae0fc3224ebd79eebfe54bd130cc9cb94416cddd1f2386115e00b72532468836040518082815260200191505060405180910390a1505050565b610b8533611675565b1515610b9057600080fd5b610b9981611988565b50565b610ba5336119e2565b565b60008060006060600080600080878787878787878797509750975097509750975097509750919395975091939597565b6101e06040519081016040528060055481526020018981526020013373ffffffffffffffffffffffffffffffffffffffff1681526020018873ffffffffffffffffffffffffffffffffffffffff168152602001878152602001868152602001858152602001848152602001838152602001828152602001600181526020016001815260200160006006811115610c6957fe5b8152602001600073ffffffffffffffffffffffffffffffffffffffff168152602001600073ffffffffffffffffffffffffffffffffffffffff16815250600660006005548152602001908152602001600020600082015181600001556020820151816001015560408201518160020160006101000a81548173ffffffffffffffffffffffffffffffffffffffff021916908373ffffffffffffffffffffffffffffffffffffffff16021790555060608201518160030160006101000a81548173ffffffffffffffffffffffffffffffffffffffff021916908373ffffffffffffffffffffffffffffffffffffffff1602179055506080820151816004019080519060200190610d79929190611df4565b5060a0820151816005019080519060200190610d96929190611df4565b5060c0820151816006019080519060200190610db3929190611df4565b5060e0820151816007019080519060200190610dd0929190611df4565b506101008201518160080155610120820151816009019080519060200190610df9929190611df4565b5061014082015181600a015561016082015181600b015561018082015181600c0160006101000a81548160ff02191690836006811115610e3557fe5b02179055506101a082015181600c0160016101000a81548173ffffffffffffffffffffffffffffffffffffffff021916908373ffffffffffffffffffffffffffffffffffffffff1602179055506101c082015181600d0160006101000a81548173ffffffffffffffffffffffffffffffffffffffff021916908373ffffffffffffffffffffffffffffffffffffffff1602179055509050506001600554016005819055507fbba19da8d116838213738bba933a0b950d375f39821adab661418376b93ac149886040518082815260200191505060405180910390a15050505050505050565b610f22611138565b73ffffffffffffffffffffffffffffffffffffffff163373ffffffffffffffffffffffffffffffffffffffff16141515610f5b57600080fd5b600073ffffffffffffffffffffffffffffffffffffffff166000809054906101000a900473ffffffffffffffffffffffffffffffffffffffff1673ffffffffffffffffffffffffffffffffffffffff167f5c486528ec3e3f0ea91181cff8116f02bfa350e03b8b6f12e00765adbb5af85c60405160405180910390a360008060006101000a81548173ffffffffffffffffffffffffffffffffffffffff021916908373ffffffffffffffffffffffffffffffffffffffff160217905550565b600080600080606080606080878787878787878797509750975097509750975097509750919395975091939597565b600061105f8260016119f990919063ffffffff16565b9050919050565b806002600681111561107457fe5b60066000838152602001908152602001600020600c0160009054906101000a900460ff1660068111156110a357fe5b1415156110af57600080fd5b6110b833611049565b15156110c357600080fd5b6003600660006005548152602001908152602001600020600c0160006101000a81548160ff021916908360068111156110f857fe5b02179055507f4fedc4de3f6146627aec716c55ed289dedac7c4d09becee2a8e5ae8221123a81826040518082815260200191505060405180910390a15050565b60008060009054906101000a900473ffffffffffffffffffffffffffffffffffffffff16905090565b60008060009054906101000a900473ffffffffffffffffffffffffffffffffffffffff1673ffffffffffffffffffffffffffffffffffffffff163373ffffffffffffffffffffffffffffffffffffffff1614905090565b6111c133611a8d565b565b60006111d98260026119f990919063ffffffff16565b9050919050565b6111e933611ae7565b565b600081600560068111156111fb57fe5b60066000838152602001908152602001600020600c0160009054906101000a900460ff16600681111561122a57fe5b14151561123657600080fd5b61123f33611049565b151561124a57600080fd5b33915081600660006005548152602001908152602001600020600d0160006101000a81548173ffffffffffffffffffffffffffffffffffffffff021916908373ffffffffffffffffffffffffffffffffffffffff16021790555060068060006005548152602001908152602001600020600c0160006101000a81548160ff021916908360068111156112d857fe5b02179055507f653d56639fee6b566a5c804764e9689de38645f0b733df89a36a1b7b42173dd8836040518082815260200191505060405180910390a1505050565b611322336111c3565b151561132d57600080fd5b61133681611b41565b50565b600080826004600681111561134a57fe5b60066000838152602001908152602001600020600c0160009054906101000a900460ff16600681111561137957fe5b14151561138557600080fd5b8380341015151561139557600080fd5b84600080339650600660006005548152602001908152602001600020600a0154955086600660006005548152602001908152602001600020600d0160006101000a81548173ffffffffffffffffffffffffffffffffffffffff021916908373ffffffffffffffffffffffffffffffffffffffff1602179055506005600660006005548152602001908152602001600020600c0160006101000a81548160ff0219169083600681111561144357fe5b021790555060066000600554815260200190815260200160002060030160009054906101000a900473ffffffffffffffffffffffffffffffffffffffff1673ffffffffffffffffffffffffffffffffffffffff166108fc879081150290604051600060405180830381858888f193505050501580156114c6573d6000803e3d6000fd5b507f92f64ca637d023f354075a4be751b169c1a8a9ccb6d33cdd0cb3520543995727886040518082815260200191505060405180910390a160066000848152602001908152602001600020600a01549150813403905060066000848152602001908152602001600020600d0160009054906101000a900473ffffffffffffffffffffffffffffffffffffffff1673ffffffffffffffffffffffffffffffffffffffff166108fc829081150290604051600060405180830381858888f19350505050158015611598573d6000803e3d6000fd5b505050505050505050565b80600160068111156115b157fe5b60066000838152602001908152602001600020600c0160009054906101000a900460ff1660068111156115e057fe5b1415156115ec57600080fd5b6115f533611675565b151561160057600080fd5b6002600660006005548152602001908152602001600020600c0160006101000a81548160ff0219169083600681111561163557fe5b02179055507f376bc3664e237a897179c3c1ddc5b8ef6318ad79c1b7819a305b0e23263f868d826040518082815260200191505060405180910390a15050565b600061168b8260036119f990919063ffffffff16565b9050919050565b61169a611138565b73ffffffffffffffffffffffffffffffffffffffff163373ffffffffffffffffffffffffffffffffffffffff161415156116d357600080fd5b6116dc81611b9b565b50565b60008082600060068111156116f057fe5b60066000838152602001908152602001600020600c0160009054906101000a900460ff16600681111561171f57fe5b14151561172b57600080fd5b8380341015151561173b57600080fd5b8460008061174833611675565b151561175357600080fd5b61175c336111c3565b151561176757600080fd5b339650600660006005548152602001908152602001600020600b0154955086600660006005548152602001908152602001600020600c0160016101000a81548173ffffffffffffffffffffffffffffffffffffffff021916908373ffffffffffffffffffffffffffffffffffffffff1602179055506001600660006005548152602001908152602001600020600c0160006101000a81548160ff0219169083600681111561181157fe5b0217905550600660006005548152602001908152602001600020600c0160019054906101000a900473ffffffffffffffffffffffffffffffffffffffff1673ffffffffffffffffffffffffffffffffffffffff166108fc879081150290604051600060405180830381858888f19350505050158015611894573d6000803e3d6000fd5b507f0fd28664df0e84ad83c0dcbd382d4fd80d870562b74c1b37a1f3e6fe6ce4862c886040518082815260200191505060405180910390a160066000848152602001908152602001600020600b01549150813403905060066000848152602001908152602001600020600d0160009054906101000a900473ffffffffffffffffffffffffffffffffffffffff1673ffffffffffffffffffffffffffffffffffffffff166108fc829081150290604051600060405180830381858888f19350505050158015611966573d6000803e3d6000fd5b505050505050505050565b611985816001611c9590919063ffffffff16565b50565b61199c816003611c9590919063ffffffff16565b8073ffffffffffffffffffffffffffffffffffffffff167f021a687fbe334e9e815cee8b399c0bc42e82356eb7f63a09ddb558a25d3dcdbd60405160405180910390a250565b6119f6816001611d4590919063ffffffff16565b50565b60008073ffffffffffffffffffffffffffffffffffffffff168273ffffffffffffffffffffffffffffffffffffffff1614151515611a3657600080fd5b8260000160008373ffffffffffffffffffffffffffffffffffffffff1673ffffffffffffffffffffffffffffffffffffffff16815260200190815260200160002060009054906101000a900460ff16905092915050565b611aa1816002611d4590919063ffffffff16565b8073ffffffffffffffffffffffffffffffffffffffff167f9ebabfcf7586bd9e26cef64918d755359eb8b878650b23b77105b0963082e34860405160405180910390a250565b611afb816003611d4590919063ffffffff16565b8073ffffffffffffffffffffffffffffffffffffffff167f94a409f50d78dc8628b7499ba5af0848a134b9a935a59c0a45313b67f66920f860405160405180910390a250565b611b55816002611c9590919063ffffffff16565b8073ffffffffffffffffffffffffffffffffffffffff167f2973ec437ba0a6207102c44c409e03815ee1cc4624578ad40d3e4c50f978559160405160405180910390a250565b600073ffffffffffffffffffffffffffffffffffffffff168173ffffffffffffffffffffffffffffffffffffffff1614151515611bd757600080fd5b8073ffffffffffffffffffffffffffffffffffffffff166000809054906101000a900473ffffffffffffffffffffffffffffffffffffffff1673ffffffffffffffffffffffffffffffffffffffff167f5c486528ec3e3f0ea91181cff8116f02bfa350e03b8b6f12e00765adbb5af85c60405160405180910390a3806000806101000a81548173ffffffffffffffffffffffffffffffffffffffff021916908373ffffffffffffffffffffffffffffffffffffffff16021790555050565b600073ffffffffffffffffffffffffffffffffffffffff168173ffffffffffffffffffffffffffffffffffffffff1614151515611cd157600080fd5b611cdb82826119f9565b151515611ce757600080fd5b60018260000160008373ffffffffffffffffffffffffffffffffffffffff1673ffffffffffffffffffffffffffffffffffffffff16815260200190815260200160002060006101000a81548160ff0219169083151502179055505050565b600073ffffffffffffffffffffffffffffffffffffffff168173ffffffffffffffffffffffffffffffffffffffff1614151515611d8157600080fd5b611d8b82826119f9565b1515611d9657600080fd5b60008260000160008373ffffffffffffffffffffffffffffffffffffffff1673ffffffffffffffffffffffffffffffffffffffff16815260200190815260200160002060006101000a81548160ff0219169083151502179055505050565b828054600181600116156101000203166002900490600052602060002090601f016020900481019282601f10611e3557805160ff1916838001178555611e63565b82800160010185558215611e63579182015b82811115611e62578251825591602001919060010190611e47565b5b509050611e709190611e74565b5090565b611e9691905b80821115611e92576000816000905550600101611e7a565b5090565b905600a165627a7a723058201b56b077666d7b56c1d51401ee4c83e2a58c89295f17c19223931b78706f1e8c0029",
  "source": "pragma solidity ^0.4.24;\n\nimport \"../coffeeaccesscontrol/CreatorRole.sol\";\nimport \"../coffeeaccesscontrol/EditorRole.sol\";\nimport \"../coffeeaccesscontrol/ConsumerRole.sol\";\nimport \"../coffeecore/Ownable.sol\";\n\n// Define a contract 'Supplychain'\ncontract SupplyChain is Ownable, ConsumerRole,  EditorRole, CreatorRole {\n\n  // Define 'owner'\n    //address owner;\n\n  // Define a variable called 'upc' for Universal Product Code (UPC)\n  uint  upc;\n\n  // Define a variable called 'sku' for Stock Keeping Unit (SKU)\n  uint  sku;\n\n  // Define a public mapping 'items' that maps the UPC to an Item.\n  mapping (uint => Item) items;\n\n  // Define a public mapping 'itemsHistory' that maps the UPC to an array of TxHash,\n  // that track its journey through the supply chain -- to be sent from DApp.\n  mapping (uint => string[]) itemsHistory;\n\n  // Define enum 'State' with the following values:\n  enum State\n  {\n    Written,  // 0\n    Edited,  // 1\n    Published,     // 2\n    Read,  // 3\n    ForSale, // 5\n    Sold, // 6\n    //Received, // 7\n    Purchased // 8\n    }\n\n  State constant defaultState = State.Written;\n\n  // Define a struct 'Item' with the following fields:\n  struct Item {\n    uint    sku;  // Stock Keeping Unit (SKU)\n    uint    upc; // Universal Product Code (UPC), generated by the creator, goes on product can be verified by the Consumer\n    address ownerID;  // Metamask-Ethereum address of the current owner as the product moves through 5 stages\n    address originCreatorID; // Metamask-Ethereum address of the Farmer\n    string  originCreatorName; // Creator Name\n    string  originCreatorInformation;  // Creator Information\n    string  originPoemCountry; // Poem Country\n    string  originPoemTitle;  // Poem Type\n    uint    productID;  // Product ID potentially a combination of upc + sku\n    string  productNotes; // Product Notes\n    uint    productPrice; // Product Price\n    uint editingPrice; // Product editing price\n    State   itemState;  // Product State as represented in the enum above\n    address editorID;  // Metamask-Ethereum address of the Distributor\n    // address retailerID; // Metamask-Ethereum address of the Retailer\n    address consumerID; // Metamask-Ethereum address of the Consumer\n  }\n\n  // Define 8 events with the same 8 state values and accept 'upc' as input argument\n  event Written(uint upc);\n  event Edited(uint upc);\n  event Published(uint upc);\n  event Read(uint upc);\n  event ForSale(uint upc);\n  event Sold(uint upc);\n  event Shipped(uint upc);\n  event Purchased(uint upc);\n\n  // Define a modifer that checks to see if msg.sender == owner of the contract\n  modifier onlyOwner() {\n    require(msg.sender == owner());\n    _;\n  }\n\n  // Define a modifer that verifies the Caller\n  modifier verifyCaller (address _address) {\n    require(msg.sender == _address);\n    _;\n  }\n\n  // Define a modifier that checks if the paid amount is sufficient to cover the price\n  modifier paidEnough(uint _price) {\n    require(msg.value >= _price);\n    _;\n  }\n  \n  // Define a modifier that checks the price and refunds the remaining balance\n  modifier checkValue(uint _upc) {\n    _;\n    uint _price = items[_upc].productPrice;\n    uint amountToReturn = msg.value - _price;\n    items[_upc].consumerID.transfer(amountToReturn);\n  }\n\n  // Define a modifier that checks the editing price and refunds the remaining balance\n  modifier checkEditingValue(uint _upc) {\n    _;\n    uint _price = items[_upc].editingPrice;\n    uint amountToReturn = msg.value - _price;\n    items[_upc].consumerID.transfer(amountToReturn);\n  }\n\n  // Define a modifier that checks if an item.state of a upc is Written\n  modifier written(uint _upc) {\n    require(items[_upc].itemState == State.Written);\n    _;\n  }\n\n  // Define a modifier that checks if an item.state of a upc is Edited\n  modifier edited(uint _upc) {\n    require(items[_upc].itemState == State.Edited);\n    _;\n  }\n  \n  // Define a modifier that checks if an item.state of a upc is Published\n  modifier published(uint _upc) {\n    require(items[_upc].itemState == State.Published);\n    _;\n  }\n\n  // Define a modifier that checks if an item.state of a upc is Read\n  modifier forSale(uint _upc) {\n    require(items[_upc].itemState == State.Read);\n    _;\n  }\n\n  // Define a modifier that checks if an item.state of a upc is ForSale\n  modifier sold(uint _upc) {\n    require(items[_upc].itemState == State.ForSale);\n    _;\n  }\n  \n  // Define a modifier that checks if an item.state of a upc is Sold\n  modifier shipped(uint _upc) {\n    require(items[_upc].itemState == State.Sold);\n    _;\n  }\n\n  // // Define a modifier that checks if an item.state of a upc is Received\n  // modifier received(uint _upc) {\n  //   require(items[_upc].itemState == State.Received);\n  //   _;\n  // }\n\n  // Define a modifier that checks if an item.state of a upc is Purchased\n  modifier purchased(uint _upc) {\n        require(items[_upc].itemState == State.Purchased);\n    _;\n  }\n\n  // In the constructor set 'owner' to the address that instantiated the contract\n  // and set 'sku' to 1\n  // and set 'upc' to 1\n  constructor() public payable {\n    owner();\n    sku = 1;\n    upc = 1;\n  }\n\n  // // Define a function 'kill' if required\n  // function kill() public {\n  //   if (msg.sender == owner) {\n  //     selfdestruct(owner);\n  //   }\n  // }\n\n  // Define a function 'writeItem' that allows a farmer to mark an item 'Written'\n  function writeItem(uint _upc, address _originCreatorID, string _originCreatorName, string _originCreatorInformation, string  _originPoemCountry, string  _originPoemTitle, uint _productID, string  _productNotes ) public\n  {\n    // Add the new item as part of Written\n    items[sku]= Item({sku:sku, upc:_upc, ownerID:msg.sender, originCreatorID:_originCreatorID, originCreatorName:_originCreatorName,originCreatorInformation:_originCreatorInformation,originPoemCountry:_originPoemCountry,originPoemTitle:_originPoemTitle, productID:_productID, productNotes:_productNotes, productPrice:1, itemState:State.Written, consumerID:0, editorID:0, editingPrice:1});\n\n    // Increment sku\n    sku = sku + 1;\n\n    // Emit the appropriate event\n    emit Written(_upc);\n\n  }\n\n  // Define a function 'editItem' that allows a creator to mark an item 'Edited'\n  function editItem(uint _upc) public payable\n  // Call modifier to check if upc has passed previous supply chain stage\n      written(_upc)\n      paidEnough(_upc)\n      checkEditingValue(_upc)\n  // Call modifier to verify caller of this function\n    onlyCreator()\n    onlyEditor()\n\n  {\n    // Update the appropriate fields\n    address editorID = msg.sender;\n    uint editingPrice = items[sku].editingPrice;\n    items[sku].editorID = editorID;\n    items[sku].itemState = State.Edited;\n    items[sku].editorID.transfer(editingPrice);\n    // Emit the appropriate event\n    emit Edited(_upc);\n  }\n\n  // Define a function 'publishItem' that allows a creator to mark an item 'Published'\n  function publishItem(uint _upc) public\n  // Call modifier to check if upc has passed previous supply chain stage\n    edited(_upc)\n  // Call modifier to verify caller of this function\n    onlyCreator()\n  {\n    // Update the appropriate fields\n    items[sku].itemState = State.Published;\n\n    // Emit the appropriate event\n    emit Published(_upc);\n\n  }\n\n    // Define a function 'readItem' that allows a consumer to mark an item 'Read'\n  function readItem(uint _upc) public \n  // Call modifier to check if upc has passed previous supply chain stage\n    published(_upc)\n  // Call modifier to verify caller of this function\n    onlyConsumer()\n  {\n    // Update the appropriate fields\n    items[sku].itemState = State.Read;\n    \n    // Emit the appropriate event\n    emit Read(_upc);\n  }\n\n  // Define a function 'sellItem' that allows a creator to mark an item 'ForSale'\n  function sellItem(uint _upc, uint _price) public\n  // Call modifier to check if upc has passed previous supply chain stage\n    published(_upc)\n  // Call modifier to verify caller of this function\n    onlyCreator()\n\n  {\n    // Update the appropriate fields\n      items[sku].productPrice = _price;\n      items[sku].itemState = State.ForSale;\n    // Emit the appropriate event\n        emit ForSale(_upc);\n  }\n\n  // Define a function 'buyItem' that allows the disributor to mark an item 'Sold'\n  // Use the above defined modifiers to check if the item is available for sale, if the buyer has paid enough,\n  // and any excess ether sent is refunded back to the buyer\n  function buyItem(uint _upc) public payable\n    // Call modifier to check if upc has passed previous supply chain stage\n      sold(_upc)\n    // Call modifer to check if buyer has paid enough\n      paidEnough(_upc)\n    // Call modifer to send any excess ether back to buyer\n      checkValue(_upc)\n    {\n    // Update the appropriate fields - ownerID, distributorID, itemState\n      address ownerID = msg.sender;\n      uint price = items[sku].productPrice;\n      items[sku].consumerID = ownerID;\n      items[sku].itemState = State.Sold;\n    // Transfer money to farmer\n      items[sku].originCreatorID.transfer(price);\n    // emit the appropriate event\n      emit Sold(_upc);\n  }\n\n  // // Define a function 'shipItem' that allows the distributor to mark an item 'Shipped'\n  // // Use the above modifers to check if the item is sold\n  // function shipItem(uint _upc) public\n  //   // Call modifier to check if upc has passed previous supply chain stage\n  //       sold(_upc)\n  //   // Call modifier to verify caller of this function\n  //       onlyCreator()\n  //   {\n  //   // Update the appropriate fields\n  //       items[sku].itemState = State.S;\n  //   // Emit the appropriate event\n  //     emit Shipped(_upc);\n  // }\n\n  // Define a function 'purchaseItem' that allows the consumer to mark an item 'Purchased'\n  // Use the above modifiers to check if the item is received\n  function purchaseItem(uint _upc) public\n    // Call modifier to check if upc has passed previous supply chain stage\n      shipped(_upc)\n    // Access Control List enforced by calling Smart Contract / DApp\n      onlyConsumer()\n    {\n    // Update the appropriate fields - ownerID, consumerID, itemState\n      address ownerID = msg.sender;\n      items[sku].consumerID = ownerID;\n      items[sku].itemState = State.Purchased;\n    // Emit the appropriate event\n    emit Purchased(_upc);\n  }\n\n  // Define a function 'fetchItemBufferOne' that fetches the data\n  function fetchItemBufferOne(uint _upc) public pure returns\n  (\n  uint    itemSKU,\n  uint    itemUPC,\n  address ownerID,\n  address originCreatorID,\n  string  originCreatorName,\n  string  originCreatorInformation,\n  string  originPoemCountry,\n  string  originPoemTitle\n  )\n{\n  // Assign values to the 8 parameters\n  return\n  (\n  itemSKU,\n  itemUPC,\n  ownerID,\n  originCreatorID,\n  originCreatorName,\n  originCreatorInformation,\n  originPoemCountry,\n  originPoemTitle\n  );\n  }\n\n  // Define a function 'fetchItemBufferTwo' that fetches the data\n  function fetchItemBufferTwo(uint _upc) public pure returns\n  (\n  uint    itemSKU,\n  uint    itemUPC,\n  uint    productID,\n  string  productNotes,\n  uint    productPrice,\n  uint    itemState,\n  address editorID,\n  address consumerID\n  )\n  {\n    // Assign values to the 9 parameters\n\n\n  return\n  (\n  itemSKU,\n  itemUPC,\n  productID,\n  productNotes,\n  productPrice,\n  itemState,\n  editorID,\n  consumerID\n  );\n  }\n}\n",
  "sourcePath": "/Users/afopefoluwaojo/code/supply-chain/project-6/contracts/coffeebase/SupplyChain.sol",
  "compiler": {
    "name": "solc",
    "version": "0.4.24+commit.e67f0147.Emscripten.clang"
  },
  "schemaVersion": "2.0.1",
  "updatedAt": "2020-06-12T15:53:14.791Z"
}